{
  "address": "0x9D19e729A1bAAfc87f4BC13FF05ce64EADfb9BbB",
  "abi": [
    {
      "inputs": [
        {
          "internalType": "string",
          "name": "_name",
          "type": "string"
        },
        {
          "internalType": "string",
          "name": "_symbol",
          "type": "string"
        },
        {
          "internalType": "uint8",
          "name": "_sharedDecimals",
          "type": "uint8"
        },
        {
          "internalType": "address",
          "name": "_lzEndpoint",
          "type": "address"
        }
      ],
      "stateMutability": "nonpayable",
      "type": "constructor"
    },
    {
      "anonymous": false,
      "inputs": [
        {
          "indexed": true,
          "internalType": "address",
          "name": "owner",
          "type": "address"
        },
        {
          "indexed": true,
          "internalType": "address",
          "name": "spender",
          "type": "address"
        },
        {
          "indexed": false,
          "internalType": "uint256",
          "name": "value",
          "type": "uint256"
        }
      ],
      "name": "Approval",
      "type": "event"
    },
    {
      "anonymous": false,
      "inputs": [
        {
          "indexed": true,
          "internalType": "uint16",
          "name": "_srcChainId",
          "type": "uint16"
        },
        {
          "indexed": false,
          "internalType": "bytes",
          "name": "_srcAddress",
          "type": "bytes"
        },
        {
          "indexed": false,
          "internalType": "uint64",
          "name": "_nonce",
          "type": "uint64"
        },
        {
          "indexed": false,
          "internalType": "bytes32",
          "name": "_hash",
          "type": "bytes32"
        }
      ],
      "name": "CallOFTReceivedSuccess",
      "type": "event"
    },
    {
      "anonymous": false,
      "inputs": [
        {
          "indexed": false,
          "internalType": "uint16",
          "name": "_srcChainId",
          "type": "uint16"
        },
        {
          "indexed": false,
          "internalType": "bytes",
          "name": "_srcAddress",
          "type": "bytes"
        },
        {
          "indexed": false,
          "internalType": "uint64",
          "name": "_nonce",
          "type": "uint64"
        },
        {
          "indexed": false,
          "internalType": "bytes",
          "name": "_payload",
          "type": "bytes"
        },
        {
          "indexed": false,
          "internalType": "bytes",
          "name": "_reason",
          "type": "bytes"
        }
      ],
      "name": "MessageFailed",
      "type": "event"
    },
    {
      "anonymous": false,
      "inputs": [
        {
          "indexed": false,
          "internalType": "address",
          "name": "_address",
          "type": "address"
        }
      ],
      "name": "NonContractAddress",
      "type": "event"
    },
    {
      "anonymous": false,
      "inputs": [
        {
          "indexed": true,
          "internalType": "address",
          "name": "previousOwner",
          "type": "address"
        },
        {
          "indexed": true,
          "internalType": "address",
          "name": "newOwner",
          "type": "address"
        }
      ],
      "name": "OwnershipTransferred",
      "type": "event"
    },
    {
      "anonymous": false,
      "inputs": [
        {
          "indexed": true,
          "internalType": "uint16",
          "name": "_srcChainId",
          "type": "uint16"
        },
        {
          "indexed": true,
          "internalType": "address",
          "name": "_to",
          "type": "address"
        },
        {
          "indexed": false,
          "internalType": "uint256",
          "name": "_amount",
          "type": "uint256"
        }
      ],
      "name": "ReceiveFromChain",
      "type": "event"
    },
    {
      "anonymous": false,
      "inputs": [
        {
          "indexed": false,
          "internalType": "uint16",
          "name": "_srcChainId",
          "type": "uint16"
        },
        {
          "indexed": false,
          "internalType": "bytes",
          "name": "_srcAddress",
          "type": "bytes"
        },
        {
          "indexed": false,
          "internalType": "uint64",
          "name": "_nonce",
          "type": "uint64"
        },
        {
          "indexed": false,
          "internalType": "bytes32",
          "name": "_payloadHash",
          "type": "bytes32"
        }
      ],
      "name": "RetryMessageSuccess",
      "type": "event"
    },
    {
      "anonymous": false,
      "inputs": [
        {
          "indexed": true,
          "internalType": "uint16",
          "name": "_dstChainId",
          "type": "uint16"
        },
        {
          "indexed": true,
          "internalType": "address",
          "name": "_from",
          "type": "address"
        },
        {
          "indexed": true,
          "internalType": "bytes32",
          "name": "_toAddress",
          "type": "bytes32"
        },
        {
          "indexed": false,
          "internalType": "uint256",
          "name": "_amount",
          "type": "uint256"
        }
      ],
      "name": "SendToChain",
      "type": "event"
    },
    {
      "anonymous": false,
      "inputs": [
        {
          "indexed": false,
          "internalType": "uint16",
          "name": "_dstChainId",
          "type": "uint16"
        },
        {
          "indexed": false,
          "internalType": "uint16",
          "name": "_type",
          "type": "uint16"
        },
        {
          "indexed": false,
          "internalType": "uint256",
          "name": "_minDstGas",
          "type": "uint256"
        }
      ],
      "name": "SetMinDstGas",
      "type": "event"
    },
    {
      "anonymous": false,
      "inputs": [
        {
          "indexed": false,
          "internalType": "address",
          "name": "precrime",
          "type": "address"
        }
      ],
      "name": "SetPrecrime",
      "type": "event"
    },
    {
      "anonymous": false,
      "inputs": [
        {
          "indexed": false,
          "internalType": "uint16",
          "name": "_remoteChainId",
          "type": "uint16"
        },
        {
          "indexed": false,
          "internalType": "bytes",
          "name": "_path",
          "type": "bytes"
        }
      ],
      "name": "SetTrustedRemote",
      "type": "event"
    },
    {
      "anonymous": false,
      "inputs": [
        {
          "indexed": false,
          "internalType": "uint16",
          "name": "_remoteChainId",
          "type": "uint16"
        },
        {
          "indexed": false,
          "internalType": "bytes",
          "name": "_remoteAddress",
          "type": "bytes"
        }
      ],
      "name": "SetTrustedRemoteAddress",
      "type": "event"
    },
    {
      "anonymous": false,
      "inputs": [
        {
          "indexed": true,
          "internalType": "address",
          "name": "from",
          "type": "address"
        },
        {
          "indexed": true,
          "internalType": "address",
          "name": "to",
          "type": "address"
        },
        {
          "indexed": false,
          "internalType": "uint256",
          "name": "value",
          "type": "uint256"
        }
      ],
      "name": "Transfer",
      "type": "event"
    },
    {
      "inputs": [],
      "name": "DEFAULT_PAYLOAD_SIZE_LIMIT",
      "outputs": [
        {
          "internalType": "uint256",
          "name": "",
          "type": "uint256"
        }
      ],
      "stateMutability": "view",
      "type": "function"
    },
    {
      "inputs": [],
      "name": "NO_EXTRA_GAS",
      "outputs": [
        {
          "internalType": "uint256",
          "name": "",
          "type": "uint256"
        }
      ],
      "stateMutability": "view",
      "type": "function"
    },
    {
      "inputs": [],
      "name": "PT_SEND",
      "outputs": [
        {
          "internalType": "uint8",
          "name": "",
          "type": "uint8"
        }
      ],
      "stateMutability": "view",
      "type": "function"
    },
    {
      "inputs": [],
      "name": "PT_SEND_AND_CALL",
      "outputs": [
        {
          "internalType": "uint8",
          "name": "",
          "type": "uint8"
        }
      ],
      "stateMutability": "view",
      "type": "function"
    },
    {
      "inputs": [
        {
          "internalType": "address",
          "name": "owner",
          "type": "address"
        },
        {
          "internalType": "address",
          "name": "spender",
          "type": "address"
        }
      ],
      "name": "allowance",
      "outputs": [
        {
          "internalType": "uint256",
          "name": "",
          "type": "uint256"
        }
      ],
      "stateMutability": "view",
      "type": "function"
    },
    {
      "inputs": [
        {
          "internalType": "address",
          "name": "spender",
          "type": "address"
        },
        {
          "internalType": "uint256",
          "name": "amount",
          "type": "uint256"
        }
      ],
      "name": "approve",
      "outputs": [
        {
          "internalType": "bool",
          "name": "",
          "type": "bool"
        }
      ],
      "stateMutability": "nonpayable",
      "type": "function"
    },
    {
      "inputs": [
        {
          "internalType": "address",
          "name": "account",
          "type": "address"
        }
      ],
      "name": "balanceOf",
      "outputs": [
        {
          "internalType": "uint256",
          "name": "",
          "type": "uint256"
        }
      ],
      "stateMutability": "view",
      "type": "function"
    },
    {
      "inputs": [
        {
          "internalType": "uint16",
          "name": "_srcChainId",
          "type": "uint16"
        },
        {
          "internalType": "bytes",
          "name": "_srcAddress",
          "type": "bytes"
        },
        {
          "internalType": "uint64",
          "name": "_nonce",
          "type": "uint64"
        },
        {
          "internalType": "bytes32",
          "name": "_from",
          "type": "bytes32"
        },
        {
          "internalType": "address",
          "name": "_to",
          "type": "address"
        },
        {
          "internalType": "uint256",
          "name": "_amount",
          "type": "uint256"
        },
        {
          "internalType": "bytes",
          "name": "_payload",
          "type": "bytes"
        },
        {
          "internalType": "uint256",
          "name": "_gasForCall",
          "type": "uint256"
        }
      ],
      "name": "callOnOFTReceived",
      "outputs": [],
      "stateMutability": "nonpayable",
      "type": "function"
    },
    {
      "inputs": [],
      "name": "circulatingSupply",
      "outputs": [
        {
          "internalType": "uint256",
          "name": "",
          "type": "uint256"
        }
      ],
      "stateMutability": "view",
      "type": "function"
    },
    {
      "inputs": [
        {
          "internalType": "uint16",
          "name": "",
          "type": "uint16"
        },
        {
          "internalType": "bytes",
          "name": "",
          "type": "bytes"
        },
        {
          "internalType": "uint64",
          "name": "",
          "type": "uint64"
        }
      ],
      "name": "creditedPackets",
      "outputs": [
        {
          "internalType": "bool",
          "name": "",
          "type": "bool"
        }
      ],
      "stateMutability": "view",
      "type": "function"
    },
    {
      "inputs": [],
      "name": "decimals",
      "outputs": [
        {
          "internalType": "uint8",
          "name": "",
          "type": "uint8"
        }
      ],
      "stateMutability": "view",
      "type": "function"
    },
    {
      "inputs": [
        {
          "internalType": "address",
          "name": "spender",
          "type": "address"
        },
        {
          "internalType": "uint256",
          "name": "subtractedValue",
          "type": "uint256"
        }
      ],
      "name": "decreaseAllowance",
      "outputs": [
        {
          "internalType": "bool",
          "name": "",
          "type": "bool"
        }
      ],
      "stateMutability": "nonpayable",
      "type": "function"
    },
    {
      "inputs": [
        {
          "internalType": "uint16",
          "name": "_dstChainId",
          "type": "uint16"
        },
        {
          "internalType": "bytes32",
          "name": "_toAddress",
          "type": "bytes32"
        },
        {
          "internalType": "uint256",
          "name": "_amount",
          "type": "uint256"
        },
        {
          "internalType": "bytes",
          "name": "_payload",
          "type": "bytes"
        },
        {
          "internalType": "uint64",
          "name": "_dstGasForCall",
          "type": "uint64"
        },
        {
          "internalType": "bool",
          "name": "_useZro",
          "type": "bool"
        },
        {
          "internalType": "bytes",
          "name": "_adapterParams",
          "type": "bytes"
        }
      ],
      "name": "estimateSendAndCallFee",
      "outputs": [
        {
          "internalType": "uint256",
          "name": "nativeFee",
          "type": "uint256"
        },
        {
          "internalType": "uint256",
          "name": "zroFee",
          "type": "uint256"
        }
      ],
      "stateMutability": "view",
      "type": "function"
    },
    {
      "inputs": [
        {
          "internalType": "uint16",
          "name": "_dstChainId",
          "type": "uint16"
        },
        {
          "internalType": "bytes32",
          "name": "_toAddress",
          "type": "bytes32"
        },
        {
          "internalType": "uint256",
          "name": "_amount",
          "type": "uint256"
        },
        {
          "internalType": "bool",
          "name": "_useZro",
          "type": "bool"
        },
        {
          "internalType": "bytes",
          "name": "_adapterParams",
          "type": "bytes"
        }
      ],
      "name": "estimateSendFee",
      "outputs": [
        {
          "internalType": "uint256",
          "name": "nativeFee",
          "type": "uint256"
        },
        {
          "internalType": "uint256",
          "name": "zroFee",
          "type": "uint256"
        }
      ],
      "stateMutability": "view",
      "type": "function"
    },
    {
      "inputs": [
        {
          "internalType": "uint16",
          "name": "",
          "type": "uint16"
        },
        {
          "internalType": "bytes",
          "name": "",
          "type": "bytes"
        },
        {
          "internalType": "uint64",
          "name": "",
          "type": "uint64"
        }
      ],
      "name": "failedMessages",
      "outputs": [
        {
          "internalType": "bytes32",
          "name": "",
          "type": "bytes32"
        }
      ],
      "stateMutability": "view",
      "type": "function"
    },
    {
      "inputs": [
        {
          "internalType": "uint16",
          "name": "_srcChainId",
          "type": "uint16"
        },
        {
          "internalType": "bytes",
          "name": "_srcAddress",
          "type": "bytes"
        }
      ],
      "name": "forceResumeReceive",
      "outputs": [],
      "stateMutability": "nonpayable",
      "type": "function"
    },
    {
      "inputs": [
        {
          "internalType": "uint16",
          "name": "_version",
          "type": "uint16"
        },
        {
          "internalType": "uint16",
          "name": "_chainId",
          "type": "uint16"
        },
        {
          "internalType": "address",
          "name": "",
          "type": "address"
        },
        {
          "internalType": "uint256",
          "name": "_configType",
          "type": "uint256"
        }
      ],
      "name": "getConfig",
      "outputs": [
        {
          "internalType": "bytes",
          "name": "",
          "type": "bytes"
        }
      ],
      "stateMutability": "view",
      "type": "function"
    },
    {
      "inputs": [
        {
          "internalType": "uint16",
          "name": "_remoteChainId",
          "type": "uint16"
        }
      ],
      "name": "getTrustedRemoteAddress",
      "outputs": [
        {
          "internalType": "bytes",
          "name": "",
          "type": "bytes"
        }
      ],
      "stateMutability": "view",
      "type": "function"
    },
    {
      "inputs": [
        {
          "internalType": "address",
          "name": "spender",
          "type": "address"
        },
        {
          "internalType": "uint256",
          "name": "addedValue",
          "type": "uint256"
        }
      ],
      "name": "increaseAllowance",
      "outputs": [
        {
          "internalType": "bool",
          "name": "",
          "type": "bool"
        }
      ],
      "stateMutability": "nonpayable",
      "type": "function"
    },
    {
      "inputs": [
        {
          "internalType": "uint16",
          "name": "_srcChainId",
          "type": "uint16"
        },
        {
          "internalType": "bytes",
          "name": "_srcAddress",
          "type": "bytes"
        }
      ],
      "name": "isTrustedRemote",
      "outputs": [
        {
          "internalType": "bool",
          "name": "",
          "type": "bool"
        }
      ],
      "stateMutability": "view",
      "type": "function"
    },
    {
      "inputs": [],
      "name": "lzEndpoint",
      "outputs": [
        {
          "internalType": "contract ILayerZeroEndpoint",
          "name": "",
          "type": "address"
        }
      ],
      "stateMutability": "view",
      "type": "function"
    },
    {
      "inputs": [
        {
          "internalType": "uint16",
          "name": "_srcChainId",
          "type": "uint16"
        },
        {
          "internalType": "bytes",
          "name": "_srcAddress",
          "type": "bytes"
        },
        {
          "internalType": "uint64",
          "name": "_nonce",
          "type": "uint64"
        },
        {
          "internalType": "bytes",
          "name": "_payload",
          "type": "bytes"
        }
      ],
      "name": "lzReceive",
      "outputs": [],
      "stateMutability": "nonpayable",
      "type": "function"
    },
    {
      "inputs": [
        {
          "internalType": "uint16",
          "name": "",
          "type": "uint16"
        },
        {
          "internalType": "uint16",
          "name": "",
          "type": "uint16"
        }
      ],
      "name": "minDstGasLookup",
      "outputs": [
        {
          "internalType": "uint256",
          "name": "",
          "type": "uint256"
        }
      ],
      "stateMutability": "view",
      "type": "function"
    },
    {
      "inputs": [],
      "name": "name",
      "outputs": [
        {
          "internalType": "string",
          "name": "",
          "type": "string"
        }
      ],
      "stateMutability": "view",
      "type": "function"
    },
    {
      "inputs": [
        {
          "internalType": "uint16",
          "name": "_srcChainId",
          "type": "uint16"
        },
        {
          "internalType": "bytes",
          "name": "_srcAddress",
          "type": "bytes"
        },
        {
          "internalType": "uint64",
          "name": "_nonce",
          "type": "uint64"
        },
        {
          "internalType": "bytes",
          "name": "_payload",
          "type": "bytes"
        }
      ],
      "name": "nonblockingLzReceive",
      "outputs": [],
      "stateMutability": "nonpayable",
      "type": "function"
    },
    {
      "inputs": [],
      "name": "owner",
      "outputs": [
        {
          "internalType": "address",
          "name": "",
          "type": "address"
        }
      ],
      "stateMutability": "view",
      "type": "function"
    },
    {
      "inputs": [
        {
          "internalType": "uint16",
          "name": "",
          "type": "uint16"
        }
      ],
      "name": "payloadSizeLimitLookup",
      "outputs": [
        {
          "internalType": "uint256",
          "name": "",
          "type": "uint256"
        }
      ],
      "stateMutability": "view",
      "type": "function"
    },
    {
      "inputs": [],
      "name": "precrime",
      "outputs": [
        {
          "internalType": "address",
          "name": "",
          "type": "address"
        }
      ],
      "stateMutability": "view",
      "type": "function"
    },
    {
      "inputs": [],
      "name": "renounceOwnership",
      "outputs": [],
      "stateMutability": "nonpayable",
      "type": "function"
    },
    {
      "inputs": [
        {
          "internalType": "uint16",
          "name": "_srcChainId",
          "type": "uint16"
        },
        {
          "internalType": "bytes",
          "name": "_srcAddress",
          "type": "bytes"
        },
        {
          "internalType": "uint64",
          "name": "_nonce",
          "type": "uint64"
        },
        {
          "internalType": "bytes",
          "name": "_payload",
          "type": "bytes"
        }
      ],
      "name": "retryMessage",
      "outputs": [],
      "stateMutability": "payable",
      "type": "function"
    },
    {
      "inputs": [
        {
          "internalType": "address",
          "name": "_from",
          "type": "address"
        },
        {
          "internalType": "uint16",
          "name": "_dstChainId",
          "type": "uint16"
        },
        {
          "internalType": "bytes32",
          "name": "_toAddress",
          "type": "bytes32"
        },
        {
          "internalType": "uint256",
          "name": "_amount",
          "type": "uint256"
        },
        {
          "internalType": "bytes",
          "name": "_payload",
          "type": "bytes"
        },
        {
          "internalType": "uint64",
          "name": "_dstGasForCall",
          "type": "uint64"
        },
        {
          "components": [
            {
              "internalType": "address payable",
              "name": "refundAddress",
              "type": "address"
            },
            {
              "internalType": "address",
              "name": "zroPaymentAddress",
              "type": "address"
            },
            {
              "internalType": "bytes",
              "name": "adapterParams",
              "type": "bytes"
            }
          ],
          "internalType": "struct ICommonOFT.LzCallParams",
          "name": "_callParams",
          "type": "tuple"
        }
      ],
      "name": "sendAndCall",
      "outputs": [],
      "stateMutability": "payable",
      "type": "function"
    },
    {
      "inputs": [
        {
          "internalType": "address",
          "name": "_from",
          "type": "address"
        },
        {
          "internalType": "uint16",
          "name": "_dstChainId",
          "type": "uint16"
        },
        {
          "internalType": "bytes32",
          "name": "_toAddress",
          "type": "bytes32"
        },
        {
          "internalType": "uint256",
          "name": "_amount",
          "type": "uint256"
        },
        {
          "components": [
            {
              "internalType": "address payable",
              "name": "refundAddress",
              "type": "address"
            },
            {
              "internalType": "address",
              "name": "zroPaymentAddress",
              "type": "address"
            },
            {
              "internalType": "bytes",
              "name": "adapterParams",
              "type": "bytes"
            }
          ],
          "internalType": "struct ICommonOFT.LzCallParams",
          "name": "_callParams",
          "type": "tuple"
        }
      ],
      "name": "sendFrom",
      "outputs": [],
      "stateMutability": "payable",
      "type": "function"
    },
    {
      "inputs": [
        {
          "internalType": "uint16",
          "name": "_version",
          "type": "uint16"
        },
        {
          "internalType": "uint16",
          "name": "_chainId",
          "type": "uint16"
        },
        {
          "internalType": "uint256",
          "name": "_configType",
          "type": "uint256"
        },
        {
          "internalType": "bytes",
          "name": "_config",
          "type": "bytes"
        }
      ],
      "name": "setConfig",
      "outputs": [],
      "stateMutability": "nonpayable",
      "type": "function"
    },
    {
      "inputs": [
        {
          "internalType": "uint16",
          "name": "_dstChainId",
          "type": "uint16"
        },
        {
          "internalType": "uint16",
          "name": "_packetType",
          "type": "uint16"
        },
        {
          "internalType": "uint256",
          "name": "_minGas",
          "type": "uint256"
        }
      ],
      "name": "setMinDstGas",
      "outputs": [],
      "stateMutability": "nonpayable",
      "type": "function"
    },
    {
      "inputs": [
        {
          "internalType": "uint16",
          "name": "_dstChainId",
          "type": "uint16"
        },
        {
          "internalType": "uint256",
          "name": "_size",
          "type": "uint256"
        }
      ],
      "name": "setPayloadSizeLimit",
      "outputs": [],
      "stateMutability": "nonpayable",
      "type": "function"
    },
    {
      "inputs": [
        {
          "internalType": "address",
          "name": "_precrime",
          "type": "address"
        }
      ],
      "name": "setPrecrime",
      "outputs": [],
      "stateMutability": "nonpayable",
      "type": "function"
    },
    {
      "inputs": [
        {
          "internalType": "uint16",
          "name": "_version",
          "type": "uint16"
        }
      ],
      "name": "setReceiveVersion",
      "outputs": [],
      "stateMutability": "nonpayable",
      "type": "function"
    },
    {
      "inputs": [
        {
          "internalType": "uint16",
          "name": "_version",
          "type": "uint16"
        }
      ],
      "name": "setSendVersion",
      "outputs": [],
      "stateMutability": "nonpayable",
      "type": "function"
    },
    {
      "inputs": [
        {
          "internalType": "uint16",
          "name": "_remoteChainId",
          "type": "uint16"
        },
        {
          "internalType": "bytes",
          "name": "_path",
          "type": "bytes"
        }
      ],
      "name": "setTrustedRemote",
      "outputs": [],
      "stateMutability": "nonpayable",
      "type": "function"
    },
    {
      "inputs": [
        {
          "internalType": "uint16",
          "name": "_remoteChainId",
          "type": "uint16"
        },
        {
          "internalType": "bytes",
          "name": "_remoteAddress",
          "type": "bytes"
        }
      ],
      "name": "setTrustedRemoteAddress",
      "outputs": [],
      "stateMutability": "nonpayable",
      "type": "function"
    },
    {
      "inputs": [],
      "name": "sharedDecimals",
      "outputs": [
        {
          "internalType": "uint8",
          "name": "",
          "type": "uint8"
        }
      ],
      "stateMutability": "view",
      "type": "function"
    },
    {
      "inputs": [
        {
          "internalType": "bytes4",
          "name": "interfaceId",
          "type": "bytes4"
        }
      ],
      "name": "supportsInterface",
      "outputs": [
        {
          "internalType": "bool",
          "name": "",
          "type": "bool"
        }
      ],
      "stateMutability": "view",
      "type": "function"
    },
    {
      "inputs": [],
      "name": "symbol",
      "outputs": [
        {
          "internalType": "string",
          "name": "",
          "type": "string"
        }
      ],
      "stateMutability": "view",
      "type": "function"
    },
    {
      "inputs": [],
      "name": "token",
      "outputs": [
        {
          "internalType": "address",
          "name": "",
          "type": "address"
        }
      ],
      "stateMutability": "view",
      "type": "function"
    },
    {
      "inputs": [],
      "name": "totalSupply",
      "outputs": [
        {
          "internalType": "uint256",
          "name": "",
          "type": "uint256"
        }
      ],
      "stateMutability": "view",
      "type": "function"
    },
    {
      "inputs": [
        {
          "internalType": "address",
          "name": "to",
          "type": "address"
        },
        {
          "internalType": "uint256",
          "name": "amount",
          "type": "uint256"
        }
      ],
      "name": "transfer",
      "outputs": [
        {
          "internalType": "bool",
          "name": "",
          "type": "bool"
        }
      ],
      "stateMutability": "nonpayable",
      "type": "function"
    },
    {
      "inputs": [
        {
          "internalType": "address",
          "name": "from",
          "type": "address"
        },
        {
          "internalType": "address",
          "name": "to",
          "type": "address"
        },
        {
          "internalType": "uint256",
          "name": "amount",
          "type": "uint256"
        }
      ],
      "name": "transferFrom",
      "outputs": [
        {
          "internalType": "bool",
          "name": "",
          "type": "bool"
        }
      ],
      "stateMutability": "nonpayable",
      "type": "function"
    },
    {
      "inputs": [
        {
          "internalType": "address",
          "name": "newOwner",
          "type": "address"
        }
      ],
      "name": "transferOwnership",
      "outputs": [],
      "stateMutability": "nonpayable",
      "type": "function"
    },
    {
      "inputs": [
        {
          "internalType": "uint16",
          "name": "",
          "type": "uint16"
        }
      ],
      "name": "trustedRemoteLookup",
      "outputs": [
        {
          "internalType": "bytes",
          "name": "",
          "type": "bytes"
        }
      ],
      "stateMutability": "view",
      "type": "function"
    }
  ],
  "transactionHash": "0x7f93da914eb34f55eb090f95dc28d3b97d0944532f8cfdd798ee851501d5fc07",
  "args": [
    "Wrapped TAO",
    "wTAO",
    8,
    "0xb6319cC6c8c27A8F5dAF0dD3DF91EA35C4720dd7"
  ],
  "numDeployments": 1,
  "solcInputHash": "e0f0292b87f57ed94b2136dcbe551a8f",
  "bytecode": "0x60e06040523480156200001157600080fd5b5060405162004bc138038062004bc1833981016040819052620000349162000247565b8383838383838383818180806200004b336200012d565b6001600160a01b0316608052505060ff1660a05250600a90506200007083826200037a565b50600b6200007f82826200037a565b5050506000620000946200017d60201b60201c565b90508060ff168360ff161115620001015760405162461bcd60e51b815260206004820152602760248201527f4f46543a20736861726564446563696d616c73206d757374206265203c3d20646044820152666563696d616c7360c81b606482015260840160405180910390fd5b6200010d83826200045c565b6200011a90600a6200057b565b60c0525062000593975050505050505050565b600080546001600160a01b038381166001600160a01b0319831681178455604051919092169283917f8be0079c531659141344cd1fd0a4f28419497f9722a3daafe3b4186f6b6457e09190a35050565b601290565b634e487b7160e01b600052604160045260246000fd5b600082601f830112620001aa57600080fd5b81516001600160401b0380821115620001c757620001c762000182565b604051601f8301601f19908116603f01168101908282118183101715620001f257620001f262000182565b816040528381526020925086838588010111156200020f57600080fd5b600091505b8382101562000233578582018301518183018401529082019062000214565b600093810190920192909252949350505050565b600080600080608085870312156200025e57600080fd5b84516001600160401b03808211156200027657600080fd5b620002848883890162000198565b955060208701519150808211156200029b57600080fd5b50620002aa8782880162000198565b935050604085015160ff81168114620002c257600080fd5b60608601519092506001600160a01b0381168114620002e057600080fd5b939692955090935050565b600181811c908216806200030057607f821691505b6020821081036200032157634e487b7160e01b600052602260045260246000fd5b50919050565b601f8211156200037557600081815260208120601f850160051c81016020861015620003505750805b601f850160051c820191505b8181101562000371578281556001016200035c565b5050505b505050565b81516001600160401b0381111562000396576200039662000182565b620003ae81620003a78454620002eb565b8462000327565b602080601f831160018114620003e65760008415620003cd5750858301515b600019600386901b1c1916600185901b17855562000371565b600085815260208120601f198616915b828110156200041757888601518255948401946001909101908401620003f6565b5085821015620004365787850151600019600388901b60f8161c191681555b5050505050600190811b01905550565b634e487b7160e01b600052601160045260246000fd5b60ff828116828216039081111562000478576200047862000446565b92915050565b600181815b80851115620004bf578160001904821115620004a357620004a362000446565b80851615620004b157918102915b93841c939080029062000483565b509250929050565b600082620004d85750600162000478565b81620004e75750600062000478565b81600181146200050057600281146200050b576200052b565b600191505062000478565b60ff8411156200051f576200051f62000446565b50506001821b62000478565b5060208310610133831016604e8410600b841016171562000550575081810a62000478565b6200055c83836200047e565b806000190482111562000573576200057362000446565b029392505050565b60006200058c60ff841683620004c7565b9392505050565b60805160a05160c0516145b1620006106000396000818161291b01528181612d7e01526130860152600061067a015260008181610854015281816109f001528181610d6a01528181610e4301528181611036015281816116fe01528181611c8d01528181612253015281816127050152612f3801526145b16000f3fe60806040526004361061031d5760003560e01c8063857749b0116101a5578063b353aaa7116100ec578063df2a5b3b11610095578063eb8d72b71161006f578063eb8d72b71461097a578063f2fde38b1461099a578063f5ecbdbc146109ba578063fc0c546a146109da57600080fd5b8063df2a5b3b14610925578063e6a20ae614610945578063eaffd49a1461095a57600080fd5b8063cbed8b9c116100c6578063cbed8b9c146108ac578063d1deba1f146108cc578063dd62ed3e146108df57600080fd5b8063b353aaa714610842578063baf3292d14610876578063c44618341461089657600080fd5b80639bdb98121161014e578063a4c51df511610128578063a4c51df5146107e2578063a6c3d16514610802578063a9059cbb1461082257600080fd5b80639bdb9812146107505780639f38369a146107a2578063a457c2d7146107c257600080fd5b80639358928b1161017f5780639358928b14610706578063950c8a741461071b57806395d89b411461073b57600080fd5b8063857749b0146106685780638cfd8f5c1461069c5780638da5cb5b146106d457600080fd5b80633d8b38f61161026957806366ad5c8a11610212578063715018a6116101ec578063715018a6146106205780637533d7881461063557806376203b481461065557600080fd5b806366ad5c8a146105b7578063695ef6bf146105d757806370a08231146105ea57600080fd5b80634477051511610243578063447705151461053e5780634c42899a146105535780635b8c41e61461056857600080fd5b80633d8b38f6146104d15780633f1f4fa4146104f157806342d65a8d1461051e57600080fd5b806310ddb137116102cb578063313ce567116102a5578063313ce5671461045a578063365260b41461047c57806339509351146104b157600080fd5b806310ddb137146103fb57806318160ddd1461041b57806323b872dd1461043a57600080fd5b806307e0db17116102fc57806307e0db171461039b578063095ea7b3146103bb5780630df37483146103db57600080fd5b80621d35671461032257806301ffc9a71461034457806306fdde0314610379575b600080fd5b34801561032e57600080fd5b5061034261033d366004613637565b6109ed565b005b34801561035057600080fd5b5061036461035f3660046136cb565b610c35565b60405190151581526020015b60405180910390f35b34801561038557600080fd5b5061038e610c9e565b6040516103709190613745565b3480156103a757600080fd5b506103426103b6366004613758565b610d30565b3480156103c757600080fd5b506103646103d6366004613788565b610dd2565b3480156103e757600080fd5b506103426103f63660046137b4565b610dea565b34801561040757600080fd5b50610342610416366004613758565b610e09565b34801561042757600080fd5b506009545b604051908152602001610370565b34801561044657600080fd5b506103646104553660046137d0565b610e7a565b34801561046657600080fd5b5060125b60405160ff9091168152602001610370565b34801561048857600080fd5b5061049c610497366004613821565b610e9e565b60408051928352602083019190915201610370565b3480156104bd57600080fd5b506103646104cc366004613788565b610ef3565b3480156104dd57600080fd5b506103646104ec366004613887565b610f32565b3480156104fd57600080fd5b5061042c61050c366004613758565b60036020526000908152604090205481565b34801561052a57600080fd5b50610342610539366004613887565b610ffe565b34801561054a57600080fd5b5061042c600081565b34801561055f57600080fd5b5061046a600081565b34801561057457600080fd5b5061042c610583366004613949565b6005602090815260009384526040808520845180860184018051928152908401958401959095209452929052825290205481565b3480156105c357600080fd5b506103426105d2366004613637565b61109d565b6103426105e5366004613a02565b611190565b3480156105f657600080fd5b5061042c610605366004613a76565b6001600160a01b031660009081526007602052604090205490565b34801561062c57600080fd5b506103426111fb565b34801561064157600080fd5b5061038e610650366004613758565b61120f565b610342610663366004613a93565b6112a9565b34801561067457600080fd5b5061046a7f000000000000000000000000000000000000000000000000000000000000000081565b3480156106a857600080fd5b5061042c6106b7366004613b46565b600260209081526000928352604080842090915290825290205481565b3480156106e057600080fd5b506000546001600160a01b03165b6040516001600160a01b039091168152602001610370565b34801561071257600080fd5b5061042c611358565b34801561072757600080fd5b506004546106ee906001600160a01b031681565b34801561074757600080fd5b5061038e611368565b34801561075c57600080fd5b5061036461076b366004613949565b6006602090815260009384526040808520845180860184018051928152908401958401959095209452929052825290205460ff1681565b3480156107ae57600080fd5b5061038e6107bd366004613758565b611377565b3480156107ce57600080fd5b506103646107dd366004613788565b61148d565b3480156107ee57600080fd5b5061049c6107fd366004613b79565b611537565b34801561080e57600080fd5b5061034261081d366004613887565b6115c6565b34801561082e57600080fd5b5061036461083d366004613788565b61164f565b34801561084e57600080fd5b506106ee7f000000000000000000000000000000000000000000000000000000000000000081565b34801561088257600080fd5b50610342610891366004613a76565b61165d565b3480156108a257600080fd5b5061042c61271081565b3480156108b857600080fd5b506103426108c7366004613c33565b6116c6565b6103426108da366004613637565b611769565b3480156108eb57600080fd5b5061042c6108fa366004613ca2565b6001600160a01b03918216600090815260086020908152604080832093909416825291909152205490565b34801561093157600080fd5b50610342610940366004613cdb565b6119b7565b34801561095157600080fd5b5061046a600181565b34801561096657600080fd5b50610342610975366004613d17565b611a21565b34801561098657600080fd5b50610342610995366004613887565b611b59565b3480156109a657600080fd5b506103426109b5366004613a76565b611bb3565b3480156109c657600080fd5b5061038e6109d5366004613de0565b611c43565b3480156109e657600080fd5b50306106ee565b337f00000000000000000000000000000000000000000000000000000000000000006001600160a01b031614610a6a5760405162461bcd60e51b815260206004820152601e60248201527f4c7a4170703a20696e76616c696420656e64706f696e742063616c6c6572000060448201526064015b60405180910390fd5b61ffff861660009081526001602052604081208054610a8890613e2d565b80601f0160208091040260200160405190810160405280929190818152602001828054610ab490613e2d565b8015610b015780601f10610ad657610100808354040283529160200191610b01565b820191906000526020600020905b815481529060010190602001808311610ae457829003601f168201915b50505050509050805186869050148015610b1c575060008151115b8015610b44575080516020820120604051610b3a9088908890613e61565b6040518091039020145b610bb65760405162461bcd60e51b815260206004820152602660248201527f4c7a4170703a20696e76616c696420736f757263652073656e64696e6720636f60448201527f6e747261637400000000000000000000000000000000000000000000000000006064820152608401610a61565b610c2c8787878080601f01602080910402602001604051908101604052809392919081815260200183838082843760009201919091525050604080516020601f8a018190048102820181019092528881528a935091508890889081908401838280828437600092019190915250611d0d92505050565b50505050505050565b60006001600160e01b031982167f1f7ecdf7000000000000000000000000000000000000000000000000000000001480610c9857507f01ffc9a7000000000000000000000000000000000000000000000000000000006001600160e01b03198316145b92915050565b6060600a8054610cad90613e2d565b80601f0160208091040260200160405190810160405280929190818152602001828054610cd990613e2d565b8015610d265780601f10610cfb57610100808354040283529160200191610d26565b820191906000526020600020905b815481529060010190602001808311610d0957829003601f168201915b5050505050905090565b610d38611d9b565b6040517f07e0db1700000000000000000000000000000000000000000000000000000000815261ffff821660048201527f00000000000000000000000000000000000000000000000000000000000000006001600160a01b0316906307e0db17906024015b600060405180830381600087803b158015610db757600080fd5b505af1158015610dcb573d6000803e3d6000fd5b5050505050565b600033610de0818585611df5565b5060019392505050565b610df2611d9b565b61ffff909116600090815260036020526040902055565b610e11611d9b565b6040517f10ddb13700000000000000000000000000000000000000000000000000000000815261ffff821660048201527f00000000000000000000000000000000000000000000000000000000000000006001600160a01b0316906310ddb13790602401610d9d565b600033610e88858285611f4d565b610e93858585611fdf565b506001949350505050565b600080610ee48888888888888080601f0160208091040260200160405190810160405280939291908181526020018383808284376000920191909152506121d392505050565b91509150965096945050505050565b3360008181526008602090815260408083206001600160a01b0387168452909152812054909190610de09082908690610f2d908790613e87565b611df5565b61ffff831660009081526001602052604081208054829190610f5390613e2d565b80601f0160208091040260200160405190810160405280929190818152602001828054610f7f90613e2d565b8015610fcc5780601f10610fa157610100808354040283529160200191610fcc565b820191906000526020600020905b815481529060010190602001808311610faf57829003601f168201915b505050505090508383604051610fe3929190613e61565b60405180910390208180519060200120149150509392505050565b611006611d9b565b6040517f42d65a8d0000000000000000000000000000000000000000000000000000000081526001600160a01b037f000000000000000000000000000000000000000000000000000000000000000016906342d65a8d9061106f90869086908690600401613ec3565b600060405180830381600087803b15801561108957600080fd5b505af1158015610c2c573d6000803e3d6000fd5b3330146111125760405162461bcd60e51b815260206004820152602660248201527f4e6f6e626c6f636b696e674c7a4170703a2063616c6c6572206d75737420626560448201527f204c7a41707000000000000000000000000000000000000000000000000000006064820152608401610a61565b6111888686868080601f01602080910402602001604051908101604052809392919081815260200183838082843760009201919091525050604080516020601f8901819004810282018101909252878152899350915087908790819084018382808284376000920191909152506122df92505050565b505050505050565b611188858585856111a46020870187613a76565b6111b46040880160208901613a76565b6111c16040890189613ee1565b8080601f01602080910402602001604051908101604052809392919081815260200183838082843760009201919091525061236692505050565b611203611d9b565b61120d6000612452565b565b6001602052600090815260409020805461122890613e2d565b80601f016020809104026020016040519081016040528092919081815260200182805461125490613e2d565b80156112a15780601f10611276576101008083540402835291602001916112a1565b820191906000526020600020905b81548152906001019060200180831161128457829003601f168201915b505050505081565b61134d8888888888888080601f0160208091040260200160405190810160405280939291908181526020018383808284376000920191909152508a92506112f69150506020890189613a76565b61130660408a0160208b01613a76565b61131360408b018b613ee1565b8080601f0160208091040260200160405190810160405280939291908181526020018383808284376000920191909152506124af92505050565b505050505050505050565b600061136360095490565b905090565b6060600b8054610cad90613e2d565b61ffff811660009081526001602052604081208054606092919061139a90613e2d565b80601f01602080910402602001604051908101604052809291908181526020018280546113c690613e2d565b80156114135780601f106113e857610100808354040283529160200191611413565b820191906000526020600020905b8154815290600101906020018083116113f657829003601f168201915b50505050509050805160000361146b5760405162461bcd60e51b815260206004820152601d60248201527f4c7a4170703a206e6f20747275737465642070617468207265636f72640000006044820152606401610a61565b61148660006014835161147e9190613f28565b8391906125b0565b9392505050565b3360008181526008602090815260408083206001600160a01b03871684529091528120549091908381101561152a5760405162461bcd60e51b815260206004820152602560248201527f45524332303a2064656372656173656420616c6c6f77616e63652062656c6f7760448201527f207a65726f0000000000000000000000000000000000000000000000000000006064820152608401610a61565b610e938286868403611df5565b6000806115b48b8b8b8b8b8080601f01602080910402602001604051908101604052809392919081815260200183838082843760009201919091525050604080516020601f8d018190048102820181019092528b81528e93508d9250908c908c90819084018382808284376000920191909152506126d892505050565b91509150995099975050505050505050565b6115ce611d9b565b8181306040516020016115e393929190613f3b565b60408051601f1981840301815291815261ffff851660009081526001602052209061160e9082613fa7565b507f8c0400cfe2d1199b1a725c78960bcc2a344d869b80590d0f2bd005db15a572ce83838360405161164293929190613ec3565b60405180910390a1505050565b600033610de0818585611fdf565b611665611d9b565b6004805473ffffffffffffffffffffffffffffffffffffffff19166001600160a01b0383169081179091556040519081527f5db758e995a17ec1ad84bdef7e8c3293a0bd6179bcce400dff5d4c3d87db726b9060200160405180910390a150565b6116ce611d9b565b6040517fcbed8b9c0000000000000000000000000000000000000000000000000000000081526001600160a01b037f0000000000000000000000000000000000000000000000000000000000000000169063cbed8b9c9061173b9088908890889088908890600401614067565b600060405180830381600087803b15801561175557600080fd5b505af115801561134d573d6000803e3d6000fd5b61ffff8616600090815260056020526040808220905161178c9088908890613e61565b908152604080516020928190038301902067ffffffffffffffff8716600090815292529020549050806118275760405162461bcd60e51b815260206004820152602360248201527f4e6f6e626c6f636b696e674c7a4170703a206e6f2073746f726564206d65737360448201527f61676500000000000000000000000000000000000000000000000000000000006064820152608401610a61565b808383604051611838929190613e61565b6040518091039020146118b35760405162461bcd60e51b815260206004820152602160248201527f4e6f6e626c6f636b696e674c7a4170703a20696e76616c6964207061796c6f6160448201527f64000000000000000000000000000000000000000000000000000000000000006064820152608401610a61565b61ffff871660009081526005602052604080822090516118d69089908990613e61565b908152604080516020928190038301812067ffffffffffffffff8916600090815290845282902093909355601f8801829004820283018201905286825261196f918991899089908190840183828082843760009201919091525050604080516020601f8a018190048102820181019092528881528a9350915088908890819084018382808284376000920191909152506122df92505050565b7fc264d91f3adc5588250e1551f547752ca0cfa8f6b530d243b9f9f4cab10ea8e587878787856040516119a69594939291906140a0565b60405180910390a150505050505050565b6119bf611d9b565b61ffff83811660008181526002602090815260408083209487168084529482529182902085905581519283528201929092529081018290527f9d5c7c0b934da8fefa9c7760c98383778a12dfbfc0c3b3106518f43fb9508ac090606001611642565b333014611a705760405162461bcd60e51b815260206004820152601f60248201527f4f4654436f72653a2063616c6c6572206d757374206265204f4654436f7265006044820152606401610a61565b611a7b308686612793565b9350846001600160a01b03168a61ffff167fbf551ec93859b170f9b2141bd9298bf3f64322c6f7beb2543a0cb669834118bf86604051611abd91815260200190565b60405180910390a36040517f7fcf35da0000000000000000000000000000000000000000000000000000000081526001600160a01b03861690637fcf35da908390611b1a908e908e908e908e908e908d908d908d906004016140dc565b600060405180830381600088803b158015611b3457600080fd5b5087f1158015611b48573d6000803e3d6000fd5b505050505050505050505050505050565b611b61611d9b565b61ffff83166000908152600160205260409020611b7f828483614138565b507ffa41487ad5d6728f0b19276fa1eddc16558578f5109fc39d2dc33c3230470dab83838360405161164293929190613ec3565b611bbb611d9b565b6001600160a01b038116611c375760405162461bcd60e51b815260206004820152602660248201527f4f776e61626c653a206e6577206f776e657220697320746865207a65726f206160448201527f64647265737300000000000000000000000000000000000000000000000000006064820152608401610a61565b611c4081612452565b50565b6040517ff5ecbdbc00000000000000000000000000000000000000000000000000000000815261ffff808616600483015284166024820152306044820152606481018290526060907f00000000000000000000000000000000000000000000000000000000000000006001600160a01b03169063f5ecbdbc90608401600060405180830381865afa158015611cdc573d6000803e3d6000fd5b505050506040513d6000823e601f3d908101601f19168201604052611d0491908101906141f8565b95945050505050565b600080611d855a60966366ad5c8a60e01b89898989604051602401611d359493929190614266565b60408051601f198184030181529190526020810180517bffffffffffffffffffffffffffffffffffffffffffffffffffffffff166001600160e01b031990931692909217909152309291906127e5565b9150915081611188576111888686868685612870565b6000546001600160a01b0316331461120d5760405162461bcd60e51b815260206004820181905260248201527f4f776e61626c653a2063616c6c6572206973206e6f7420746865206f776e65726044820152606401610a61565b6001600160a01b038316611e705760405162461bcd60e51b8152602060048201526024808201527f45524332303a20617070726f76652066726f6d20746865207a65726f2061646460448201527f72657373000000000000000000000000000000000000000000000000000000006064820152608401610a61565b6001600160a01b038216611eec5760405162461bcd60e51b815260206004820152602260248201527f45524332303a20617070726f766520746f20746865207a65726f20616464726560448201527f73730000000000000000000000000000000000000000000000000000000000006064820152608401610a61565b6001600160a01b0383811660008181526008602090815260408083209487168084529482529182902085905590518481527f8c5be1e5ebec7d5bd14f71427d1e84f3dd0314c0f7b2291e5b200ac8c7c3b925910160405180910390a3505050565b6001600160a01b038381166000908152600860209081526040808320938616835292905220546000198114611fd95781811015611fcc5760405162461bcd60e51b815260206004820152601d60248201527f45524332303a20696e73756666696369656e7420616c6c6f77616e63650000006044820152606401610a61565b611fd98484848403611df5565b50505050565b6001600160a01b03831661205b5760405162461bcd60e51b815260206004820152602560248201527f45524332303a207472616e736665722066726f6d20746865207a65726f20616460448201527f64726573730000000000000000000000000000000000000000000000000000006064820152608401610a61565b6001600160a01b0382166120d75760405162461bcd60e51b815260206004820152602360248201527f45524332303a207472616e7366657220746f20746865207a65726f206164647260448201527f65737300000000000000000000000000000000000000000000000000000000006064820152608401610a61565b6001600160a01b038316600090815260076020526040902054818110156121665760405162461bcd60e51b815260206004820152602660248201527f45524332303a207472616e7366657220616d6f756e742065786365656473206260448201527f616c616e636500000000000000000000000000000000000000000000000000006064820152608401610a61565b6001600160a01b0380851660008181526007602052604080822086860390559286168082529083902080548601905591517fddf252ad1be2c89b69c2b068fc378daa952ba7f163c4a11628f55a4df523b3ef906121c69086815260200190565b60405180910390a3611fd9565b6000806000612239876121e588612913565b6040805160006020820152602181019390935260c09190911b7fffffffffffffffff000000000000000000000000000000000000000000000000166041830152805160298184030181526049909201905290565b60405163040a7bb160e41b81529091506001600160a01b037f000000000000000000000000000000000000000000000000000000000000000016906340a7bb1090612290908b90309086908b908b906004016142a5565b6040805180830381865afa1580156122ac573d6000803e3d6000fd5b505050506040513d601f19601f820116820180604052508101906122d091906142f7565b92509250509550959350505050565b60006122eb828261299a565b905060ff81166123065761230185858585612a00565b610dcb565b60001960ff82160161231e5761230185858585612a90565b60405162461bcd60e51b815260206004820152601c60248201527f4f4654436f72653a20756e6b6e6f776e207061636b65742074797065000000006044820152606401610a61565b600061237487828481612ca1565b61237d85612d76565b50905061238c88888884612db6565b9050600081116123de5760405162461bcd60e51b815260206004820152601960248201527f4f4654436f72653a20616d6f756e7420746f6f20736d616c6c000000000000006044820152606401610a61565b60006123ed876121e584612913565b90506123fd888287878734612de8565b86896001600160a01b03168961ffff167fd81fc9b8523134ed613870ed029d6170cbb73aa6a6bc311b9a642689fb9df59a8560405161243e91815260200190565b60405180910390a450979650505050505050565b600080546001600160a01b0383811673ffffffffffffffffffffffffffffffffffffffff19831681178455604051919092169283917f8be0079c531659141344cd1fd0a4f28419497f9722a3daafe3b4186f6b6457e09190a35050565b60006124c88960018467ffffffffffffffff8916612ca1565b6124d187612d76565b5090506124e08a8a8a84612db6565b9050600081116125325760405162461bcd60e51b815260206004820152601960248201527f4f4654436f72653a20616d6f756e7420746f6f20736d616c6c000000000000006044820152606401610a61565b6000612549338a61254285612913565b8a8a612fb4565b90506125598a8287878734612de8565b888b6001600160a01b03168b61ffff167fd81fc9b8523134ed613870ed029d6170cbb73aa6a6bc311b9a642689fb9df59a8560405161259a91815260200190565b60405180910390a4509998505050505050505050565b6060816125be81601f613e87565b101561260c5760405162461bcd60e51b815260206004820152600e60248201527f736c6963655f6f766572666c6f770000000000000000000000000000000000006044820152606401610a61565b6126168284613e87565b845110156126665760405162461bcd60e51b815260206004820152601160248201527f736c6963655f6f75744f66426f756e64730000000000000000000000000000006044820152606401610a61565b60608215801561268557604051915060008252602082016040526126cf565b6040519150601f8416801560200281840101858101878315602002848b0101015b818310156126be5780518352602092830192016126a6565b5050858452601f01601f1916604052505b50949350505050565b60008060006126eb338a6125428b612913565b60405163040a7bb160e41b81529091506001600160a01b037f000000000000000000000000000000000000000000000000000000000000000016906340a7bb1090612742908d90309086908b908b906004016142a5565b6040805180830381865afa15801561275e573d6000803e3d6000fd5b505050506040513d601f19601f8201168201806040525081019061278291906142f7565b925092505097509795505050505050565b600033306001600160a01b038616148015906127c15750806001600160a01b0316856001600160a01b031614155b156127d1576127d1858285611f4d565b6127dc858585611fdf565b50909392505050565b6000606060008060008661ffff1667ffffffffffffffff81111561280b5761280b6138da565b6040519080825280601f01601f191660200182016040528015612835576020820181803683370190505b50905060008087516020890160008d8df191503d925086831115612857578692505b828152826000602083013e909890975095505050505050565b8180519060200120600560008761ffff1661ffff168152602001908152602001600020856040516128a1919061431b565b90815260408051918290036020908101832067ffffffffffffffff88166000908152915220919091557fe183f33de2837795525b4792ca4cd60535bd77c53b7e7030060bfcf5734d6b0c906128ff9087908790879087908790614337565b60405180910390a15050505050565b505050565b6000806129407f0000000000000000000000000000000000000000000000000000000000000000846143a0565b905067ffffffffffffffff811115610c985760405162461bcd60e51b815260206004820152601a60248201527f4f4654436f72653a20616d6f756e745344206f766572666c6f770000000000006044820152606401610a61565b60006129a7826001613e87565b835110156129f75760405162461bcd60e51b815260206004820152601360248201527f746f55696e74385f6f75744f66426f756e6473000000000000000000000000006044820152606401610a61565b50016001015190565b600080612a0c83612ff5565b90925090506001600160a01b038216612a255761dead91505b6000612a308261307f565b9050612a3d8784836130b5565b9050826001600160a01b03168761ffff167fbf551ec93859b170f9b2141bd9298bf3f64322c6f7beb2543a0cb669834118bf83604051612a7f91815260200190565b60405180910390a350505050505050565b6000806000806000612aa1866130c8565b945094509450945094506000600660008b61ffff1661ffff16815260200190815260200160002089604051612ad6919061431b565b908152604080516020928190038301902067ffffffffffffffff8b166000908152925281205460ff169150612b0a8561307f565b905081612b7957612b1c8b30836130b5565b61ffff8c16600090815260066020526040908190209051919250600191612b44908d9061431b565b908152604080516020928190038301902067ffffffffffffffff8d16600090815292529020805460ff19169115159190911790555b6001600160a01b0386163b612bd0576040516001600160a01b03871681527f9aedf5fdba8716db3b6705ca00150643309995d4f818a249ed6dde6677e7792d9060200160405180910390a150505050505050611fd9565b8a8a8a8a8a8a868a60008a612bef578b67ffffffffffffffff16612bf1565b5a5b9050600080612c235a609663eaffd49a60e01b8e8e8e8d8d8d8d8d604051602401611d359897969594939291906143b4565b915091508115612c7c578751602089012060405161ffff8d16907fb8890edbfc1c74692f527444645f95489c3703cc2df42e4a366f5d06fa6cd88490612c6e908e908e908690614427565b60405180910390a250612c89565b612c898b8b8b8b85612870565b50505050505050505050505050505050505050505050565b6000612cac83613184565b61ffff80871660009081526002602090815260408083209389168352929052205490915080612d1d5760405162461bcd60e51b815260206004820152601a60248201527f4c7a4170703a206d696e4761734c696d6974206e6f74207365740000000000006044820152606401610a61565b612d278382613e87565b8210156111885760405162461bcd60e51b815260206004820152601b60248201527f4c7a4170703a20676173206c696d697420697320746f6f206c6f7700000000006044820152606401610a61565b600080612da37f000000000000000000000000000000000000000000000000000000000000000084614456565b9050612daf8184613f28565b9150915091565b6000336001600160a01b0386168114612dd457612dd4868285611f4d565b612dde86846131e0565b5090949350505050565b61ffff861660009081526001602052604081208054612e0690613e2d565b80601f0160208091040260200160405190810160405280929190818152602001828054612e3290613e2d565b8015612e7f5780601f10612e5457610100808354040283529160200191612e7f565b820191906000526020600020905b815481529060010190602001808311612e6257829003601f168201915b505050505090508051600003612efd5760405162461bcd60e51b815260206004820152603060248201527f4c7a4170703a2064657374696e6174696f6e20636861696e206973206e6f742060448201527f61207472757374656420736f75726365000000000000000000000000000000006064820152608401610a61565b612f0887875161334b565b6040517fc58031000000000000000000000000000000000000000000000000000000000081526001600160a01b037f0000000000000000000000000000000000000000000000000000000000000000169063c5803100908490612f79908b9086908c908c908c908c9060040161446a565b6000604051808303818588803b158015612f9257600080fd5b505af1158015612fa6573d6000803e3d6000fd5b505050505050505050505050565b6060600185856001600160a01b0389168587604051602001612fdb969594939291906144d1565b604051602081830303815290604052905095945050505050565b60008080613003848261299a565b60ff16148015613014575082516029145b6130605760405162461bcd60e51b815260206004820152601860248201527f4f4654436f72653a20696e76616c6964207061796c6f616400000000000000006044820152606401610a61565b61306b83600d6133bc565b9150613078836021613432565b9050915091565b6000610c987f000000000000000000000000000000000000000000000000000000000000000067ffffffffffffffff8416614564565b60006130c18383613498565b5092915050565b6000808060608160016130db878361299a565b60ff161461312b5760405162461bcd60e51b815260206004820152601860248201527f4f4654436f72653a20696e76616c6964207061796c6f616400000000000000006044820152606401610a61565b61313686600d6133bc565b9350613143866021613432565b9250613150866029613559565b945061315d866049613432565b905061317960518088516131719190613f28565b8891906125b0565b915091939590929450565b60006022825110156131d85760405162461bcd60e51b815260206004820152601c60248201527f4c7a4170703a20696e76616c69642061646170746572506172616d73000000006044820152606401610a61565b506022015190565b6001600160a01b03821661325c5760405162461bcd60e51b815260206004820152602160248201527f45524332303a206275726e2066726f6d20746865207a65726f2061646472657360448201527f73000000000000000000000000000000000000000000000000000000000000006064820152608401610a61565b6001600160a01b038216600090815260076020526040902054818110156132eb5760405162461bcd60e51b815260206004820152602260248201527f45524332303a206275726e20616d6f756e7420657863656564732062616c616e60448201527f63650000000000000000000000000000000000000000000000000000000000006064820152608401610a61565b6001600160a01b03831660008181526007602090815260408083208686039055600980548790039055518581529192917fddf252ad1be2c89b69c2b068fc378daa952ba7f163c4a11628f55a4df523b3ef910160405180910390a3505050565b61ffff82166000908152600360205260408120549081900361336c57506127105b8082111561290e5760405162461bcd60e51b815260206004820181905260248201527f4c7a4170703a207061796c6f61642073697a6520697320746f6f206c617267656044820152606401610a61565b60006133c9826014613e87565b835110156134195760405162461bcd60e51b815260206004820152601560248201527f746f416464726573735f6f75744f66426f756e647300000000000000000000006044820152606401610a61565b5001602001516c01000000000000000000000000900490565b600061343f826008613e87565b8351101561348f5760405162461bcd60e51b815260206004820152601460248201527f746f55696e7436345f6f75744f66426f756e64730000000000000000000000006044820152606401610a61565b50016008015190565b6001600160a01b0382166134ee5760405162461bcd60e51b815260206004820152601f60248201527f45524332303a206d696e7420746f20746865207a65726f2061646472657373006044820152606401610a61565b80600960008282546135009190613e87565b90915550506001600160a01b0382166000818152600760209081526040808320805486019055518481527fddf252ad1be2c89b69c2b068fc378daa952ba7f163c4a11628f55a4df523b3ef910160405180910390a35050565b6000613566826020613e87565b835110156135b65760405162461bcd60e51b815260206004820152601560248201527f746f427974657333325f6f75744f66426f756e647300000000000000000000006044820152606401610a61565b50016020015190565b803561ffff811681146135d157600080fd5b919050565b60008083601f8401126135e857600080fd5b50813567ffffffffffffffff81111561360057600080fd5b60208301915083602082850101111561361857600080fd5b9250929050565b803567ffffffffffffffff811681146135d157600080fd5b6000806000806000806080878903121561365057600080fd5b613659876135bf565b9550602087013567ffffffffffffffff8082111561367657600080fd5b6136828a838b016135d6565b909750955085915061369660408a0161361f565b945060608901359150808211156136ac57600080fd5b506136b989828a016135d6565b979a9699509497509295939492505050565b6000602082840312156136dd57600080fd5b81356001600160e01b03198116811461148657600080fd5b60005b838110156137105781810151838201526020016136f8565b50506000910152565b600081518084526137318160208601602086016136f5565b601f01601f19169290920160200192915050565b6020815260006114866020830184613719565b60006020828403121561376a57600080fd5b611486826135bf565b6001600160a01b0381168114611c4057600080fd5b6000806040838503121561379b57600080fd5b82356137a681613773565b946020939093013593505050565b600080604083850312156137c757600080fd5b6137a6836135bf565b6000806000606084860312156137e557600080fd5b83356137f081613773565b9250602084013561380081613773565b929592945050506040919091013590565b803580151581146135d157600080fd5b60008060008060008060a0878903121561383a57600080fd5b613843876135bf565b9550602087013594506040870135935061385f60608801613811565b9250608087013567ffffffffffffffff81111561387b57600080fd5b6136b989828a016135d6565b60008060006040848603121561389c57600080fd5b6138a5846135bf565b9250602084013567ffffffffffffffff8111156138c157600080fd5b6138cd868287016135d6565b9497909650939450505050565b634e487b7160e01b600052604160045260246000fd5b604051601f8201601f1916810167ffffffffffffffff81118282101715613919576139196138da565b604052919050565b600067ffffffffffffffff82111561393b5761393b6138da565b50601f01601f191660200190565b60008060006060848603121561395e57600080fd5b613967846135bf565b9250602084013567ffffffffffffffff81111561398357600080fd5b8401601f8101861361399457600080fd5b80356139a76139a282613921565b6138f0565b8181528760208385010111156139bc57600080fd5b816020840160208301376000602083830101528094505050506139e16040850161361f565b90509250925092565b6000606082840312156139fc57600080fd5b50919050565b600080600080600060a08688031215613a1a57600080fd5b8535613a2581613773565b9450613a33602087016135bf565b93506040860135925060608601359150608086013567ffffffffffffffff811115613a5d57600080fd5b613a69888289016139ea565b9150509295509295909350565b600060208284031215613a8857600080fd5b813561148681613773565b60008060008060008060008060e0898b031215613aaf57600080fd5b8835613aba81613773565b9750613ac860208a016135bf565b96506040890135955060608901359450608089013567ffffffffffffffff80821115613af357600080fd5b613aff8c838d016135d6565b9096509450849150613b1360a08c0161361f565b935060c08b0135915080821115613b2957600080fd5b50613b368b828c016139ea565b9150509295985092959890939650565b60008060408385031215613b5957600080fd5b613b62836135bf565b9150613b70602084016135bf565b90509250929050565b600080600080600080600080600060e08a8c031215613b9757600080fd5b613ba08a6135bf565b985060208a0135975060408a0135965060608a013567ffffffffffffffff80821115613bcb57600080fd5b613bd78d838e016135d6565b9098509650869150613beb60808d0161361f565b9550613bf960a08d01613811565b945060c08c0135915080821115613c0f57600080fd5b50613c1c8c828d016135d6565b915080935050809150509295985092959850929598565b600080600080600060808688031215613c4b57600080fd5b613c54866135bf565b9450613c62602087016135bf565b935060408601359250606086013567ffffffffffffffff811115613c8557600080fd5b613c91888289016135d6565b969995985093965092949392505050565b60008060408385031215613cb557600080fd5b8235613cc081613773565b91506020830135613cd081613773565b809150509250929050565b600080600060608486031215613cf057600080fd5b613cf9846135bf565b9250613d07602085016135bf565b9150604084013590509250925092565b6000806000806000806000806000806101008b8d031215613d3757600080fd5b613d408b6135bf565b995060208b013567ffffffffffffffff80821115613d5d57600080fd5b613d698e838f016135d6565b909b509950899150613d7d60408e0161361f565b985060608d0135975060808d01359150613d9682613773565b90955060a08c0135945060c08c01359080821115613db357600080fd5b50613dc08d828e016135d6565b9150809450508092505060e08b013590509295989b9194979a5092959850565b60008060008060808587031215613df657600080fd5b613dff856135bf565b9350613e0d602086016135bf565b92506040850135613e1d81613773565b9396929550929360600135925050565b600181811c90821680613e4157607f821691505b6020821081036139fc57634e487b7160e01b600052602260045260246000fd5b8183823760009101908152919050565b634e487b7160e01b600052601160045260246000fd5b80820180821115610c9857610c98613e71565b81835281816020850137506000828201602090810191909152601f909101601f19169091010190565b61ffff84168152604060208201526000611d04604083018486613e9a565b6000808335601e19843603018112613ef857600080fd5b83018035915067ffffffffffffffff821115613f1357600080fd5b60200191503681900382131561361857600080fd5b81810381811115610c9857610c98613e71565b8284823760609190911b6bffffffffffffffffffffffff19169101908152601401919050565b601f82111561290e57600081815260208120601f850160051c81016020861015613f885750805b601f850160051c820191505b8181101561118857828155600101613f94565b815167ffffffffffffffff811115613fc157613fc16138da565b613fd581613fcf8454613e2d565b84613f61565b602080601f83116001811461400a5760008415613ff25750858301515b600019600386901b1c1916600185901b178555611188565b600085815260208120601f198616915b828110156140395788860151825594840194600190910190840161401a565b50858210156140575787850151600019600388901b60f8161c191681555b5050505050600190811b01905550565b600061ffff808816835280871660208401525084604083015260806060830152614095608083018486613e9a565b979650505050505050565b61ffff861681526080602082015260006140be608083018688613e9a565b67ffffffffffffffff94909416604083015250606001529392505050565b61ffff8916815260c0602082015260006140fa60c08301898b613e9a565b67ffffffffffffffff8816604084015286606084015285608084015282810360a0840152614129818587613e9a565b9b9a5050505050505050505050565b67ffffffffffffffff831115614150576141506138da565b6141648361415e8354613e2d565b83613f61565b6000601f84116001811461419857600085156141805750838201355b600019600387901b1c1916600186901b178355610dcb565b600083815260209020601f19861690835b828110156141c957868501358255602094850194600190920191016141a9565b50868210156141e65760001960f88860031b161c19848701351681555b505060018560011b0183555050505050565b60006020828403121561420a57600080fd5b815167ffffffffffffffff81111561422157600080fd5b8201601f8101841361423257600080fd5b80516142406139a282613921565b81815285602083850101111561425557600080fd5b611d048260208301602086016136f5565b61ffff851681526080602082015260006142836080830186613719565b67ffffffffffffffff8516604084015282810360608401526140958185613719565b61ffff861681526001600160a01b038516602082015260a0604082015260006142d160a0830186613719565b841515606084015282810360808401526142eb8185613719565b98975050505050505050565b6000806040838503121561430a57600080fd5b505080516020909101519092909150565b6000825161432d8184602087016136f5565b9190910192915050565b61ffff8616815260a06020820152600061435460a0830187613719565b67ffffffffffffffff8616604084015282810360608401526143768186613719565b905082810360808401526142eb8185613719565b634e487b7160e01b600052601260045260246000fd5b6000826143af576143af61438a565b500490565b600061010061ffff8b1683528060208401526143d28184018b613719565b905067ffffffffffffffff891660408401528760608401526001600160a01b03871660808401528560a084015282810360c08401526144118186613719565b9150508260e08301529998505050505050505050565b60608152600061443a6060830186613719565b67ffffffffffffffff9490941660208301525060400152919050565b6000826144655761446561438a565b500690565b61ffff8716815260c06020820152600061448760c0830188613719565b82810360408401526144998188613719565b6001600160a01b0387811660608601528616608085015283810360a085015290506144c48185613719565b9998505050505050505050565b7fff000000000000000000000000000000000000000000000000000000000000008760f81b16815285600182015260007fffffffffffffffff000000000000000000000000000000000000000000000000808760c01b166021840152856029840152808560c01b1660498401525082516145528160518501602087016136f5565b91909101605101979650505050505050565b8082028115828204841417610c9857610c98613e7156fea264697066735822122071da3cc14ced8138312cb59fbe33a4f42d7f5be7aa74ddd870019bd7a6a4af2564736f6c63430008150033",
  "devdoc": {
    "events": {
      "Approval(address,address,uint256)": {
        "details": "Emitted when the allowance of a `spender` for an `owner` is set by a call to {approve}. `value` is the new allowance."
      },
      "ReceiveFromChain(uint16,address,uint256)": {
        "details": "Emitted when `_amount` tokens are received from `_srcChainId` into the `_toAddress` on the local chain. `_nonce` is the inbound nonce."
      },
      "SendToChain(uint16,address,bytes32,uint256)": {
        "details": "Emitted when `_amount` tokens are moved from the `_sender` to (`_dstChainId`, `_toAddress`) `_nonce` is the outbound nonce"
      },
      "Transfer(address,address,uint256)": {
        "details": "Emitted when `value` tokens are moved from one account (`from`) to another (`to`). Note that `value` may be zero."
      }
    },
    "kind": "dev",
    "methods": {
      "allowance(address,address)": {
        "details": "See {IERC20-allowance}."
      },
      "approve(address,uint256)": {
        "details": "See {IERC20-approve}. NOTE: If `amount` is the maximum `uint256`, the allowance is not updated on `transferFrom`. This is semantically equivalent to an infinite approval. Requirements: - `spender` cannot be the zero address."
      },
      "balanceOf(address)": {
        "details": "See {IERC20-balanceOf}."
      },
      "circulatingSupply()": {
        "details": "returns the circulating amount of tokens on current chain"
      },
      "decimals()": {
        "details": "Returns the number of decimals used to get its user representation. For example, if `decimals` equals `2`, a balance of `505` tokens should be displayed to a user as `5.05` (`505 / 10 ** 2`). Tokens usually opt for a value of 18, imitating the relationship between Ether and Wei. This is the default value returned by this function, unless it's overridden. NOTE: This information is only used for _display_ purposes: it in no way affects any of the arithmetic of the contract, including {IERC20-balanceOf} and {IERC20-transfer}."
      },
      "decreaseAllowance(address,uint256)": {
        "details": "Atomically decreases the allowance granted to `spender` by the caller. This is an alternative to {approve} that can be used as a mitigation for problems described in {IERC20-approve}. Emits an {Approval} event indicating the updated allowance. Requirements: - `spender` cannot be the zero address. - `spender` must have allowance for the caller of at least `subtractedValue`."
      },
      "estimateSendFee(uint16,bytes32,uint256,bool,bytes)": {
        "details": "estimate send token `_tokenId` to (`_dstChainId`, `_toAddress`) _dstChainId - L0 defined chain id to send tokens too _toAddress - dynamic bytes array which contains the address to whom you are sending tokens to on the dstChain _amount - amount of the tokens to transfer _useZro - indicates to use zro to pay L0 fees _adapterParam - flexible bytes array to indicate messaging adapter services in L0"
      },
      "increaseAllowance(address,uint256)": {
        "details": "Atomically increases the allowance granted to `spender` by the caller. This is an alternative to {approve} that can be used as a mitigation for problems described in {IERC20-approve}. Emits an {Approval} event indicating the updated allowance. Requirements: - `spender` cannot be the zero address."
      },
      "name()": {
        "details": "Returns the name of the token."
      },
      "owner()": {
        "details": "Returns the address of the current owner."
      },
      "renounceOwnership()": {
        "details": "Leaves the contract without owner. It will not be possible to call `onlyOwner` functions. Can only be called by the current owner. NOTE: Renouncing ownership will leave the contract without an owner, thereby disabling any functionality that is only available to the owner."
      },
      "sendFrom(address,uint16,bytes32,uint256,(address,address,bytes))": {
        "details": "send `_amount` amount of token to (`_dstChainId`, `_toAddress`) from `_from` `_from` the owner of token `_dstChainId` the destination chain identifier `_toAddress` can be any size depending on the `dstChainId`. `_amount` the quantity of tokens in wei `_refundAddress` the address LayerZero refunds if too much message fee is sent `_zroPaymentAddress` set to address(0x0) if not paying in ZRO (LayerZero Token) `_adapterParams` is a flexible bytes array to indicate messaging adapter services"
      },
      "symbol()": {
        "details": "Returns the symbol of the token, usually a shorter version of the name."
      },
      "token()": {
        "details": "returns the address of the ERC20 token"
      },
      "totalSupply()": {
        "details": "See {IERC20-totalSupply}."
      },
      "transfer(address,uint256)": {
        "details": "See {IERC20-transfer}. Requirements: - `to` cannot be the zero address. - the caller must have a balance of at least `amount`."
      },
      "transferFrom(address,address,uint256)": {
        "details": "See {IERC20-transferFrom}. Emits an {Approval} event indicating the updated allowance. This is not required by the EIP. See the note at the beginning of {ERC20}. NOTE: Does not update the allowance if the current allowance is the maximum `uint256`. Requirements: - `from` and `to` cannot be the zero address. - `from` must have a balance of at least `amount`. - the caller must have allowance for ``from``'s tokens of at least `amount`."
      },
      "transferOwnership(address)": {
        "details": "Transfers ownership of the contract to a new account (`newOwner`). Can only be called by the current owner."
      }
    },
    "version": 1
  },
  "userdoc": {
    "kind": "user",
    "methods": {},
    "version": 1
  },
  "storageLayout": {
    "storage": [
      {
        "astId": 7,
        "contract": "contracts/token/LayerZeroWTAOBase.sol:LayerZeroWTAOBase",
        "label": "_owner",
        "offset": 0,
        "slot": "0",
        "type": "t_address"
      },
      {
        "astId": 6014,
        "contract": "contracts/token/LayerZeroWTAOBase.sol:LayerZeroWTAOBase",
        "label": "trustedRemoteLookup",
        "offset": 0,
        "slot": "1",
        "type": "t_mapping(t_uint16,t_bytes_storage)"
      },
      {
        "astId": 6020,
        "contract": "contracts/token/LayerZeroWTAOBase.sol:LayerZeroWTAOBase",
        "label": "minDstGasLookup",
        "offset": 0,
        "slot": "2",
        "type": "t_mapping(t_uint16,t_mapping(t_uint16,t_uint256))"
      },
      {
        "astId": 6024,
        "contract": "contracts/token/LayerZeroWTAOBase.sol:LayerZeroWTAOBase",
        "label": "payloadSizeLimitLookup",
        "offset": 0,
        "slot": "3",
        "type": "t_mapping(t_uint16,t_uint256)"
      },
      {
        "astId": 6026,
        "contract": "contracts/token/LayerZeroWTAOBase.sol:LayerZeroWTAOBase",
        "label": "precrime",
        "offset": 0,
        "slot": "4",
        "type": "t_address"
      },
      {
        "astId": 6556,
        "contract": "contracts/token/LayerZeroWTAOBase.sol:LayerZeroWTAOBase",
        "label": "failedMessages",
        "offset": 0,
        "slot": "5",
        "type": "t_mapping(t_uint16,t_mapping(t_bytes_memory_ptr,t_mapping(t_uint64,t_bytes32)))"
      },
      {
        "astId": 10550,
        "contract": "contracts/token/LayerZeroWTAOBase.sol:LayerZeroWTAOBase",
        "label": "creditedPackets",
        "offset": 0,
        "slot": "6",
        "type": "t_mapping(t_uint16,t_mapping(t_bytes_memory_ptr,t_mapping(t_uint64,t_bool)))"
      },
      {
        "astId": 1594,
        "contract": "contracts/token/LayerZeroWTAOBase.sol:LayerZeroWTAOBase",
        "label": "_balances",
        "offset": 0,
        "slot": "7",
        "type": "t_mapping(t_address,t_uint256)"
      },
      {
        "astId": 1600,
        "contract": "contracts/token/LayerZeroWTAOBase.sol:LayerZeroWTAOBase",
        "label": "_allowances",
        "offset": 0,
        "slot": "8",
        "type": "t_mapping(t_address,t_mapping(t_address,t_uint256))"
      },
      {
        "astId": 1602,
        "contract": "contracts/token/LayerZeroWTAOBase.sol:LayerZeroWTAOBase",
        "label": "_totalSupply",
        "offset": 0,
        "slot": "9",
        "type": "t_uint256"
      },
      {
        "astId": 1604,
        "contract": "contracts/token/LayerZeroWTAOBase.sol:LayerZeroWTAOBase",
        "label": "_name",
        "offset": 0,
        "slot": "10",
        "type": "t_string_storage"
      },
      {
        "astId": 1606,
        "contract": "contracts/token/LayerZeroWTAOBase.sol:LayerZeroWTAOBase",
        "label": "_symbol",
        "offset": 0,
        "slot": "11",
        "type": "t_string_storage"
      }
    ],
    "types": {
      "t_address": {
        "encoding": "inplace",
        "label": "address",
        "numberOfBytes": "20"
      },
      "t_bool": {
        "encoding": "inplace",
        "label": "bool",
        "numberOfBytes": "1"
      },
      "t_bytes32": {
        "encoding": "inplace",
        "label": "bytes32",
        "numberOfBytes": "32"
      },
      "t_bytes_memory_ptr": {
        "encoding": "bytes",
        "label": "bytes",
        "numberOfBytes": "32"
      },
      "t_bytes_storage": {
        "encoding": "bytes",
        "label": "bytes",
        "numberOfBytes": "32"
      },
      "t_mapping(t_address,t_mapping(t_address,t_uint256))": {
        "encoding": "mapping",
        "key": "t_address",
        "label": "mapping(address => mapping(address => uint256))",
        "numberOfBytes": "32",
        "value": "t_mapping(t_address,t_uint256)"
      },
      "t_mapping(t_address,t_uint256)": {
        "encoding": "mapping",
        "key": "t_address",
        "label": "mapping(address => uint256)",
        "numberOfBytes": "32",
        "value": "t_uint256"
      },
      "t_mapping(t_bytes_memory_ptr,t_mapping(t_uint64,t_bool))": {
        "encoding": "mapping",
        "key": "t_bytes_memory_ptr",
        "label": "mapping(bytes => mapping(uint64 => bool))",
        "numberOfBytes": "32",
        "value": "t_mapping(t_uint64,t_bool)"
      },
      "t_mapping(t_bytes_memory_ptr,t_mapping(t_uint64,t_bytes32))": {
        "encoding": "mapping",
        "key": "t_bytes_memory_ptr",
        "label": "mapping(bytes => mapping(uint64 => bytes32))",
        "numberOfBytes": "32",
        "value": "t_mapping(t_uint64,t_bytes32)"
      },
      "t_mapping(t_uint16,t_bytes_storage)": {
        "encoding": "mapping",
        "key": "t_uint16",
        "label": "mapping(uint16 => bytes)",
        "numberOfBytes": "32",
        "value": "t_bytes_storage"
      },
      "t_mapping(t_uint16,t_mapping(t_bytes_memory_ptr,t_mapping(t_uint64,t_bool)))": {
        "encoding": "mapping",
        "key": "t_uint16",
        "label": "mapping(uint16 => mapping(bytes => mapping(uint64 => bool)))",
        "numberOfBytes": "32",
        "value": "t_mapping(t_bytes_memory_ptr,t_mapping(t_uint64,t_bool))"
      },
      "t_mapping(t_uint16,t_mapping(t_bytes_memory_ptr,t_mapping(t_uint64,t_bytes32)))": {
        "encoding": "mapping",
        "key": "t_uint16",
        "label": "mapping(uint16 => mapping(bytes => mapping(uint64 => bytes32)))",
        "numberOfBytes": "32",
        "value": "t_mapping(t_bytes_memory_ptr,t_mapping(t_uint64,t_bytes32))"
      },
      "t_mapping(t_uint16,t_mapping(t_uint16,t_uint256))": {
        "encoding": "mapping",
        "key": "t_uint16",
        "label": "mapping(uint16 => mapping(uint16 => uint256))",
        "numberOfBytes": "32",
        "value": "t_mapping(t_uint16,t_uint256)"
      },
      "t_mapping(t_uint16,t_uint256)": {
        "encoding": "mapping",
        "key": "t_uint16",
        "label": "mapping(uint16 => uint256)",
        "numberOfBytes": "32",
        "value": "t_uint256"
      },
      "t_mapping(t_uint64,t_bool)": {
        "encoding": "mapping",
        "key": "t_uint64",
        "label": "mapping(uint64 => bool)",
        "numberOfBytes": "32",
        "value": "t_bool"
      },
      "t_mapping(t_uint64,t_bytes32)": {
        "encoding": "mapping",
        "key": "t_uint64",
        "label": "mapping(uint64 => bytes32)",
        "numberOfBytes": "32",
        "value": "t_bytes32"
      },
      "t_string_storage": {
        "encoding": "bytes",
        "label": "string",
        "numberOfBytes": "32"
      },
      "t_uint16": {
        "encoding": "inplace",
        "label": "uint16",
        "numberOfBytes": "2"
      },
      "t_uint256": {
        "encoding": "inplace",
        "label": "uint256",
        "numberOfBytes": "32"
      },
      "t_uint64": {
        "encoding": "inplace",
        "label": "uint64",
        "numberOfBytes": "8"
      }
    }
  }
}