{
  "address": "0x4D9B7203BcF5B226A6f4Dc89DA68E7922bfE1322",
  "abi": [
    {
      "inputs": [
        {
          "internalType": "address",
          "name": "_token",
          "type": "address"
        },
        {
          "internalType": "uint8",
          "name": "_sharedDecimals",
          "type": "uint8"
        },
        {
          "internalType": "address",
          "name": "_lzEndpoint",
          "type": "address"
        }
      ],
      "stateMutability": "nonpayable",
      "type": "constructor"
    },
    {
      "anonymous": false,
      "inputs": [
        {
          "indexed": true,
          "internalType": "uint16",
          "name": "_srcChainId",
          "type": "uint16"
        },
        {
          "indexed": false,
          "internalType": "bytes",
          "name": "_srcAddress",
          "type": "bytes"
        },
        {
          "indexed": false,
          "internalType": "uint64",
          "name": "_nonce",
          "type": "uint64"
        },
        {
          "indexed": false,
          "internalType": "bytes32",
          "name": "_hash",
          "type": "bytes32"
        }
      ],
      "name": "CallOFTReceivedSuccess",
      "type": "event"
    },
    {
      "anonymous": false,
      "inputs": [
        {
          "indexed": false,
          "internalType": "uint16",
          "name": "_srcChainId",
          "type": "uint16"
        },
        {
          "indexed": false,
          "internalType": "bytes",
          "name": "_srcAddress",
          "type": "bytes"
        },
        {
          "indexed": false,
          "internalType": "uint64",
          "name": "_nonce",
          "type": "uint64"
        },
        {
          "indexed": false,
          "internalType": "bytes",
          "name": "_payload",
          "type": "bytes"
        },
        {
          "indexed": false,
          "internalType": "bytes",
          "name": "_reason",
          "type": "bytes"
        }
      ],
      "name": "MessageFailed",
      "type": "event"
    },
    {
      "anonymous": false,
      "inputs": [
        {
          "indexed": false,
          "internalType": "address",
          "name": "_address",
          "type": "address"
        }
      ],
      "name": "NonContractAddress",
      "type": "event"
    },
    {
      "anonymous": false,
      "inputs": [
        {
          "indexed": true,
          "internalType": "address",
          "name": "previousOwner",
          "type": "address"
        },
        {
          "indexed": true,
          "internalType": "address",
          "name": "newOwner",
          "type": "address"
        }
      ],
      "name": "OwnershipTransferred",
      "type": "event"
    },
    {
      "anonymous": false,
      "inputs": [
        {
          "indexed": true,
          "internalType": "uint16",
          "name": "_srcChainId",
          "type": "uint16"
        },
        {
          "indexed": true,
          "internalType": "address",
          "name": "_to",
          "type": "address"
        },
        {
          "indexed": false,
          "internalType": "uint256",
          "name": "_amount",
          "type": "uint256"
        }
      ],
      "name": "ReceiveFromChain",
      "type": "event"
    },
    {
      "anonymous": false,
      "inputs": [
        {
          "indexed": false,
          "internalType": "uint16",
          "name": "_srcChainId",
          "type": "uint16"
        },
        {
          "indexed": false,
          "internalType": "bytes",
          "name": "_srcAddress",
          "type": "bytes"
        },
        {
          "indexed": false,
          "internalType": "uint64",
          "name": "_nonce",
          "type": "uint64"
        },
        {
          "indexed": false,
          "internalType": "bytes32",
          "name": "_payloadHash",
          "type": "bytes32"
        }
      ],
      "name": "RetryMessageSuccess",
      "type": "event"
    },
    {
      "anonymous": false,
      "inputs": [
        {
          "indexed": true,
          "internalType": "uint16",
          "name": "_dstChainId",
          "type": "uint16"
        },
        {
          "indexed": true,
          "internalType": "address",
          "name": "_from",
          "type": "address"
        },
        {
          "indexed": true,
          "internalType": "bytes32",
          "name": "_toAddress",
          "type": "bytes32"
        },
        {
          "indexed": false,
          "internalType": "uint256",
          "name": "_amount",
          "type": "uint256"
        }
      ],
      "name": "SendToChain",
      "type": "event"
    },
    {
      "anonymous": false,
      "inputs": [
        {
          "indexed": false,
          "internalType": "uint16",
          "name": "_dstChainId",
          "type": "uint16"
        },
        {
          "indexed": false,
          "internalType": "uint16",
          "name": "_type",
          "type": "uint16"
        },
        {
          "indexed": false,
          "internalType": "uint256",
          "name": "_minDstGas",
          "type": "uint256"
        }
      ],
      "name": "SetMinDstGas",
      "type": "event"
    },
    {
      "anonymous": false,
      "inputs": [
        {
          "indexed": false,
          "internalType": "address",
          "name": "precrime",
          "type": "address"
        }
      ],
      "name": "SetPrecrime",
      "type": "event"
    },
    {
      "anonymous": false,
      "inputs": [
        {
          "indexed": false,
          "internalType": "uint16",
          "name": "_remoteChainId",
          "type": "uint16"
        },
        {
          "indexed": false,
          "internalType": "bytes",
          "name": "_path",
          "type": "bytes"
        }
      ],
      "name": "SetTrustedRemote",
      "type": "event"
    },
    {
      "anonymous": false,
      "inputs": [
        {
          "indexed": false,
          "internalType": "uint16",
          "name": "_remoteChainId",
          "type": "uint16"
        },
        {
          "indexed": false,
          "internalType": "bytes",
          "name": "_remoteAddress",
          "type": "bytes"
        }
      ],
      "name": "SetTrustedRemoteAddress",
      "type": "event"
    },
    {
      "inputs": [],
      "name": "DEFAULT_PAYLOAD_SIZE_LIMIT",
      "outputs": [
        {
          "internalType": "uint256",
          "name": "",
          "type": "uint256"
        }
      ],
      "stateMutability": "view",
      "type": "function"
    },
    {
      "inputs": [],
      "name": "NO_EXTRA_GAS",
      "outputs": [
        {
          "internalType": "uint256",
          "name": "",
          "type": "uint256"
        }
      ],
      "stateMutability": "view",
      "type": "function"
    },
    {
      "inputs": [],
      "name": "PT_SEND",
      "outputs": [
        {
          "internalType": "uint8",
          "name": "",
          "type": "uint8"
        }
      ],
      "stateMutability": "view",
      "type": "function"
    },
    {
      "inputs": [],
      "name": "PT_SEND_AND_CALL",
      "outputs": [
        {
          "internalType": "uint8",
          "name": "",
          "type": "uint8"
        }
      ],
      "stateMutability": "view",
      "type": "function"
    },
    {
      "inputs": [
        {
          "internalType": "uint16",
          "name": "_srcChainId",
          "type": "uint16"
        },
        {
          "internalType": "bytes",
          "name": "_srcAddress",
          "type": "bytes"
        },
        {
          "internalType": "uint64",
          "name": "_nonce",
          "type": "uint64"
        },
        {
          "internalType": "bytes32",
          "name": "_from",
          "type": "bytes32"
        },
        {
          "internalType": "address",
          "name": "_to",
          "type": "address"
        },
        {
          "internalType": "uint256",
          "name": "_amount",
          "type": "uint256"
        },
        {
          "internalType": "bytes",
          "name": "_payload",
          "type": "bytes"
        },
        {
          "internalType": "uint256",
          "name": "_gasForCall",
          "type": "uint256"
        }
      ],
      "name": "callOnOFTReceived",
      "outputs": [],
      "stateMutability": "nonpayable",
      "type": "function"
    },
    {
      "inputs": [],
      "name": "circulatingSupply",
      "outputs": [
        {
          "internalType": "uint256",
          "name": "",
          "type": "uint256"
        }
      ],
      "stateMutability": "view",
      "type": "function"
    },
    {
      "inputs": [
        {
          "internalType": "uint16",
          "name": "",
          "type": "uint16"
        },
        {
          "internalType": "bytes",
          "name": "",
          "type": "bytes"
        },
        {
          "internalType": "uint64",
          "name": "",
          "type": "uint64"
        }
      ],
      "name": "creditedPackets",
      "outputs": [
        {
          "internalType": "bool",
          "name": "",
          "type": "bool"
        }
      ],
      "stateMutability": "view",
      "type": "function"
    },
    {
      "inputs": [
        {
          "internalType": "uint16",
          "name": "_dstChainId",
          "type": "uint16"
        },
        {
          "internalType": "bytes32",
          "name": "_toAddress",
          "type": "bytes32"
        },
        {
          "internalType": "uint256",
          "name": "_amount",
          "type": "uint256"
        },
        {
          "internalType": "bytes",
          "name": "_payload",
          "type": "bytes"
        },
        {
          "internalType": "uint64",
          "name": "_dstGasForCall",
          "type": "uint64"
        },
        {
          "internalType": "bool",
          "name": "_useZro",
          "type": "bool"
        },
        {
          "internalType": "bytes",
          "name": "_adapterParams",
          "type": "bytes"
        }
      ],
      "name": "estimateSendAndCallFee",
      "outputs": [
        {
          "internalType": "uint256",
          "name": "nativeFee",
          "type": "uint256"
        },
        {
          "internalType": "uint256",
          "name": "zroFee",
          "type": "uint256"
        }
      ],
      "stateMutability": "view",
      "type": "function"
    },
    {
      "inputs": [
        {
          "internalType": "uint16",
          "name": "_dstChainId",
          "type": "uint16"
        },
        {
          "internalType": "bytes32",
          "name": "_toAddress",
          "type": "bytes32"
        },
        {
          "internalType": "uint256",
          "name": "_amount",
          "type": "uint256"
        },
        {
          "internalType": "bool",
          "name": "_useZro",
          "type": "bool"
        },
        {
          "internalType": "bytes",
          "name": "_adapterParams",
          "type": "bytes"
        }
      ],
      "name": "estimateSendFee",
      "outputs": [
        {
          "internalType": "uint256",
          "name": "nativeFee",
          "type": "uint256"
        },
        {
          "internalType": "uint256",
          "name": "zroFee",
          "type": "uint256"
        }
      ],
      "stateMutability": "view",
      "type": "function"
    },
    {
      "inputs": [
        {
          "internalType": "uint16",
          "name": "",
          "type": "uint16"
        },
        {
          "internalType": "bytes",
          "name": "",
          "type": "bytes"
        },
        {
          "internalType": "uint64",
          "name": "",
          "type": "uint64"
        }
      ],
      "name": "failedMessages",
      "outputs": [
        {
          "internalType": "bytes32",
          "name": "",
          "type": "bytes32"
        }
      ],
      "stateMutability": "view",
      "type": "function"
    },
    {
      "inputs": [
        {
          "internalType": "uint16",
          "name": "_srcChainId",
          "type": "uint16"
        },
        {
          "internalType": "bytes",
          "name": "_srcAddress",
          "type": "bytes"
        }
      ],
      "name": "forceResumeReceive",
      "outputs": [],
      "stateMutability": "nonpayable",
      "type": "function"
    },
    {
      "inputs": [
        {
          "internalType": "uint16",
          "name": "_version",
          "type": "uint16"
        },
        {
          "internalType": "uint16",
          "name": "_chainId",
          "type": "uint16"
        },
        {
          "internalType": "address",
          "name": "",
          "type": "address"
        },
        {
          "internalType": "uint256",
          "name": "_configType",
          "type": "uint256"
        }
      ],
      "name": "getConfig",
      "outputs": [
        {
          "internalType": "bytes",
          "name": "",
          "type": "bytes"
        }
      ],
      "stateMutability": "view",
      "type": "function"
    },
    {
      "inputs": [
        {
          "internalType": "uint16",
          "name": "_remoteChainId",
          "type": "uint16"
        }
      ],
      "name": "getTrustedRemoteAddress",
      "outputs": [
        {
          "internalType": "bytes",
          "name": "",
          "type": "bytes"
        }
      ],
      "stateMutability": "view",
      "type": "function"
    },
    {
      "inputs": [
        {
          "internalType": "uint16",
          "name": "_srcChainId",
          "type": "uint16"
        },
        {
          "internalType": "bytes",
          "name": "_srcAddress",
          "type": "bytes"
        }
      ],
      "name": "isTrustedRemote",
      "outputs": [
        {
          "internalType": "bool",
          "name": "",
          "type": "bool"
        }
      ],
      "stateMutability": "view",
      "type": "function"
    },
    {
      "inputs": [],
      "name": "lzEndpoint",
      "outputs": [
        {
          "internalType": "contract ILayerZeroEndpoint",
          "name": "",
          "type": "address"
        }
      ],
      "stateMutability": "view",
      "type": "function"
    },
    {
      "inputs": [
        {
          "internalType": "uint16",
          "name": "_srcChainId",
          "type": "uint16"
        },
        {
          "internalType": "bytes",
          "name": "_srcAddress",
          "type": "bytes"
        },
        {
          "internalType": "uint64",
          "name": "_nonce",
          "type": "uint64"
        },
        {
          "internalType": "bytes",
          "name": "_payload",
          "type": "bytes"
        }
      ],
      "name": "lzReceive",
      "outputs": [],
      "stateMutability": "nonpayable",
      "type": "function"
    },
    {
      "inputs": [
        {
          "internalType": "uint16",
          "name": "",
          "type": "uint16"
        },
        {
          "internalType": "uint16",
          "name": "",
          "type": "uint16"
        }
      ],
      "name": "minDstGasLookup",
      "outputs": [
        {
          "internalType": "uint256",
          "name": "",
          "type": "uint256"
        }
      ],
      "stateMutability": "view",
      "type": "function"
    },
    {
      "inputs": [
        {
          "internalType": "uint16",
          "name": "_srcChainId",
          "type": "uint16"
        },
        {
          "internalType": "bytes",
          "name": "_srcAddress",
          "type": "bytes"
        },
        {
          "internalType": "uint64",
          "name": "_nonce",
          "type": "uint64"
        },
        {
          "internalType": "bytes",
          "name": "_payload",
          "type": "bytes"
        }
      ],
      "name": "nonblockingLzReceive",
      "outputs": [],
      "stateMutability": "nonpayable",
      "type": "function"
    },
    {
      "inputs": [],
      "name": "outboundAmount",
      "outputs": [
        {
          "internalType": "uint256",
          "name": "",
          "type": "uint256"
        }
      ],
      "stateMutability": "view",
      "type": "function"
    },
    {
      "inputs": [],
      "name": "owner",
      "outputs": [
        {
          "internalType": "address",
          "name": "",
          "type": "address"
        }
      ],
      "stateMutability": "view",
      "type": "function"
    },
    {
      "inputs": [
        {
          "internalType": "uint16",
          "name": "",
          "type": "uint16"
        }
      ],
      "name": "payloadSizeLimitLookup",
      "outputs": [
        {
          "internalType": "uint256",
          "name": "",
          "type": "uint256"
        }
      ],
      "stateMutability": "view",
      "type": "function"
    },
    {
      "inputs": [],
      "name": "precrime",
      "outputs": [
        {
          "internalType": "address",
          "name": "",
          "type": "address"
        }
      ],
      "stateMutability": "view",
      "type": "function"
    },
    {
      "inputs": [],
      "name": "renounceOwnership",
      "outputs": [],
      "stateMutability": "nonpayable",
      "type": "function"
    },
    {
      "inputs": [
        {
          "internalType": "uint16",
          "name": "_srcChainId",
          "type": "uint16"
        },
        {
          "internalType": "bytes",
          "name": "_srcAddress",
          "type": "bytes"
        },
        {
          "internalType": "uint64",
          "name": "_nonce",
          "type": "uint64"
        },
        {
          "internalType": "bytes",
          "name": "_payload",
          "type": "bytes"
        }
      ],
      "name": "retryMessage",
      "outputs": [],
      "stateMutability": "payable",
      "type": "function"
    },
    {
      "inputs": [
        {
          "internalType": "address",
          "name": "_from",
          "type": "address"
        },
        {
          "internalType": "uint16",
          "name": "_dstChainId",
          "type": "uint16"
        },
        {
          "internalType": "bytes32",
          "name": "_toAddress",
          "type": "bytes32"
        },
        {
          "internalType": "uint256",
          "name": "_amount",
          "type": "uint256"
        },
        {
          "internalType": "bytes",
          "name": "_payload",
          "type": "bytes"
        },
        {
          "internalType": "uint64",
          "name": "_dstGasForCall",
          "type": "uint64"
        },
        {
          "components": [
            {
              "internalType": "address payable",
              "name": "refundAddress",
              "type": "address"
            },
            {
              "internalType": "address",
              "name": "zroPaymentAddress",
              "type": "address"
            },
            {
              "internalType": "bytes",
              "name": "adapterParams",
              "type": "bytes"
            }
          ],
          "internalType": "struct ICommonOFT.LzCallParams",
          "name": "_callParams",
          "type": "tuple"
        }
      ],
      "name": "sendAndCall",
      "outputs": [],
      "stateMutability": "payable",
      "type": "function"
    },
    {
      "inputs": [
        {
          "internalType": "address",
          "name": "_from",
          "type": "address"
        },
        {
          "internalType": "uint16",
          "name": "_dstChainId",
          "type": "uint16"
        },
        {
          "internalType": "bytes32",
          "name": "_toAddress",
          "type": "bytes32"
        },
        {
          "internalType": "uint256",
          "name": "_amount",
          "type": "uint256"
        },
        {
          "components": [
            {
              "internalType": "address payable",
              "name": "refundAddress",
              "type": "address"
            },
            {
              "internalType": "address",
              "name": "zroPaymentAddress",
              "type": "address"
            },
            {
              "internalType": "bytes",
              "name": "adapterParams",
              "type": "bytes"
            }
          ],
          "internalType": "struct ICommonOFT.LzCallParams",
          "name": "_callParams",
          "type": "tuple"
        }
      ],
      "name": "sendFrom",
      "outputs": [],
      "stateMutability": "payable",
      "type": "function"
    },
    {
      "inputs": [
        {
          "internalType": "uint16",
          "name": "_version",
          "type": "uint16"
        },
        {
          "internalType": "uint16",
          "name": "_chainId",
          "type": "uint16"
        },
        {
          "internalType": "uint256",
          "name": "_configType",
          "type": "uint256"
        },
        {
          "internalType": "bytes",
          "name": "_config",
          "type": "bytes"
        }
      ],
      "name": "setConfig",
      "outputs": [],
      "stateMutability": "nonpayable",
      "type": "function"
    },
    {
      "inputs": [
        {
          "internalType": "uint16",
          "name": "_dstChainId",
          "type": "uint16"
        },
        {
          "internalType": "uint16",
          "name": "_packetType",
          "type": "uint16"
        },
        {
          "internalType": "uint256",
          "name": "_minGas",
          "type": "uint256"
        }
      ],
      "name": "setMinDstGas",
      "outputs": [],
      "stateMutability": "nonpayable",
      "type": "function"
    },
    {
      "inputs": [
        {
          "internalType": "uint16",
          "name": "_dstChainId",
          "type": "uint16"
        },
        {
          "internalType": "uint256",
          "name": "_size",
          "type": "uint256"
        }
      ],
      "name": "setPayloadSizeLimit",
      "outputs": [],
      "stateMutability": "nonpayable",
      "type": "function"
    },
    {
      "inputs": [
        {
          "internalType": "address",
          "name": "_precrime",
          "type": "address"
        }
      ],
      "name": "setPrecrime",
      "outputs": [],
      "stateMutability": "nonpayable",
      "type": "function"
    },
    {
      "inputs": [
        {
          "internalType": "uint16",
          "name": "_version",
          "type": "uint16"
        }
      ],
      "name": "setReceiveVersion",
      "outputs": [],
      "stateMutability": "nonpayable",
      "type": "function"
    },
    {
      "inputs": [
        {
          "internalType": "uint16",
          "name": "_version",
          "type": "uint16"
        }
      ],
      "name": "setSendVersion",
      "outputs": [],
      "stateMutability": "nonpayable",
      "type": "function"
    },
    {
      "inputs": [
        {
          "internalType": "uint16",
          "name": "_remoteChainId",
          "type": "uint16"
        },
        {
          "internalType": "bytes",
          "name": "_path",
          "type": "bytes"
        }
      ],
      "name": "setTrustedRemote",
      "outputs": [],
      "stateMutability": "nonpayable",
      "type": "function"
    },
    {
      "inputs": [
        {
          "internalType": "uint16",
          "name": "_remoteChainId",
          "type": "uint16"
        },
        {
          "internalType": "bytes",
          "name": "_remoteAddress",
          "type": "bytes"
        }
      ],
      "name": "setTrustedRemoteAddress",
      "outputs": [],
      "stateMutability": "nonpayable",
      "type": "function"
    },
    {
      "inputs": [],
      "name": "sharedDecimals",
      "outputs": [
        {
          "internalType": "uint8",
          "name": "",
          "type": "uint8"
        }
      ],
      "stateMutability": "view",
      "type": "function"
    },
    {
      "inputs": [
        {
          "internalType": "bytes4",
          "name": "interfaceId",
          "type": "bytes4"
        }
      ],
      "name": "supportsInterface",
      "outputs": [
        {
          "internalType": "bool",
          "name": "",
          "type": "bool"
        }
      ],
      "stateMutability": "view",
      "type": "function"
    },
    {
      "inputs": [],
      "name": "token",
      "outputs": [
        {
          "internalType": "address",
          "name": "",
          "type": "address"
        }
      ],
      "stateMutability": "view",
      "type": "function"
    },
    {
      "inputs": [
        {
          "internalType": "address",
          "name": "newOwner",
          "type": "address"
        }
      ],
      "name": "transferOwnership",
      "outputs": [],
      "stateMutability": "nonpayable",
      "type": "function"
    },
    {
      "inputs": [
        {
          "internalType": "uint16",
          "name": "",
          "type": "uint16"
        }
      ],
      "name": "trustedRemoteLookup",
      "outputs": [
        {
          "internalType": "bytes",
          "name": "",
          "type": "bytes"
        }
      ],
      "stateMutability": "view",
      "type": "function"
    }
  ],
  "transactionHash": "0x8b0d58da84bddc47f07045c84ed7b197025f0f7caf952dce82ee81552b4e93ba",
  "args": [
    "0x77E06c9eCCf2E797fd462A92B6D7642EF85b0A44",
    8,
    "0x66A71Dcef29A0fFBDBE3c6a460a3B5BC225Cd675"
  ],
  "numDeployments": 1,
  "solcInputHash": "bd45ca7cb19f012ede70ce2b9ae552e9",
  "bytecode": "0x6101006040523480156200001257600080fd5b506040516200471f3803806200471f833981016040819052620000359162000280565b828282818181818080620000493362000201565b6001600160a01b0390811660805260ff90931660a0525050851660c081905260408051600481526024810182526020810180516001600160e01b031663313ce56760e01b179052905160009450849350620000a59190620002ca565b600060405180830381855afa9150503d8060008114620000e2576040519150601f19603f3d011682016040523d82523d6000602084013e620000e7565b606091505b5091509150816200014e5760405162461bcd60e51b815260206004820152602660248201527f50726f78794f46543a206661696c656420746f2067657420746f6b656e20646560448201526563696d616c7360d01b60648201526084015b60405180910390fd5b600081806020019051810190620001669190620002fb565b90508060ff168560ff161115620001d55760405162461bcd60e51b815260206004820152602c60248201527f50726f78794f46543a20736861726564446563696d616c73206d75737420626560448201526b203c3d20646563696d616c7360a01b606482015260840162000145565b620001e1858262000336565b620001ee90600a62000455565b60e0525062000466975050505050505050565b600080546001600160a01b038381166001600160a01b0319831681178455604051919092169283917f8be0079c531659141344cd1fd0a4f28419497f9722a3daafe3b4186f6b6457e09190a35050565b80516001600160a01b03811681146200026957600080fd5b919050565b805160ff811681146200026957600080fd5b6000806000606084860312156200029657600080fd5b620002a18462000251565b9250620002b1602085016200026e565b9150620002c16040850162000251565b90509250925092565b6000825160005b81811015620002ed5760208186018101518583015201620002d1565b506000920191825250919050565b6000602082840312156200030e57600080fd5b62000319826200026e565b9392505050565b634e487b7160e01b600052601160045260246000fd5b60ff828116828216039081111562000352576200035262000320565b92915050565b600181815b80851115620003995781600019048211156200037d576200037d62000320565b808516156200038b57918102915b93841c93908002906200035d565b509250929050565b600082620003b25750600162000352565b81620003c15750600062000352565b8160018114620003da5760028114620003e55762000405565b600191505062000352565b60ff841115620003f957620003f962000320565b50506001821b62000352565b5060208310610133831016604e8410600b84101617156200042a575081810a62000352565b62000436838362000358565b80600019048211156200044d576200044d62000320565b029392505050565b60006200031960ff841683620003a1565b60805160a05160c05160e0516142086200051760003960008181612395015281816127f90152612d3f01526000818161081a015281816110a4015281816120d8015281816121620152818161219b015281816121e401526128e2015260006105300152600081816106cb0152818161084101528181610b2901528181610bea01528181610d7b015281816113fb0152818161198a01528181611b74015281816120260152612b0a01526142086000f3fe60806040526004361061029f5760003560e01c80638da5cb5b1161016e578063c4461834116100cb578063eaffd49a1161007f578063f2fde38b11610064578063f2fde38b146107cb578063f5ecbdbc146107eb578063fc0c546a1461080b57600080fd5b8063eaffd49a1461078b578063eb8d72b7146107ab57600080fd5b8063d1deba1f116100b0578063d1deba1f14610743578063df2a5b3b14610756578063e6a20ae61461077657600080fd5b8063c44618341461070d578063cbed8b9c1461072357600080fd5b80639f38369a11610122578063a6c3d16511610107578063a6c3d16514610699578063b353aaa7146106b9578063baf3292d146106ed57600080fd5b80639f38369a14610659578063a4c51df51461067957600080fd5b8063950c8a7411610153578063950c8a74146105d15780639689cb05146105f15780639bdb98121461060757600080fd5b80638da5cb5b1461058a5780639358928b146105bc57600080fd5b8063447705151161021c578063715018a6116101d057806376203b48116101b557806376203b481461050b578063857749b01461051e5780638cfd8f5c1461055257600080fd5b8063715018a6146104c95780637533d788146104de57600080fd5b80635b8c41e6116102015780635b8c41e61461044757806366ad5c8a14610496578063695ef6bf146104b657600080fd5b8063447705151461040b5780634c42899a1461042057600080fd5b806310ddb137116102735780633d8b38f6116102585780633d8b38f6146103905780633f1f4fa4146103b057806342d65a8d146103eb57600080fd5b806310ddb1371461033b578063365260b41461035b57600080fd5b80621d3567146102a457806301ffc9a7146102c657806307e0db17146102fb5780630df374831461031b575b600080fd5b3480156102b057600080fd5b506102c46102bf3660046132f7565b61083e565b005b3480156102d257600080fd5b506102e66102e136600461338b565b610a86565b60405190151581526020015b60405180910390f35b34801561030757600080fd5b506102c46103163660046133b5565b610aef565b34801561032757600080fd5b506102c46103363660046133d0565b610b91565b34801561034757600080fd5b506102c46103563660046133b5565b610bb0565b34801561036757600080fd5b5061037b610376366004613408565b610c21565b604080519283526020830191909152016102f2565b34801561039c57600080fd5b506102e66103ab366004613470565b610c76565b3480156103bc57600080fd5b506103dd6103cb3660046133b5565b60036020526000908152604090205481565b6040519081526020016102f2565b3480156103f757600080fd5b506102c4610406366004613470565b610d43565b34801561041757600080fd5b506103dd600081565b34801561042c57600080fd5b50610435600081565b60405160ff90911681526020016102f2565b34801561045357600080fd5b506103dd610462366004613532565b6005602090815260009384526040808520845180860184018051928152908401958401959095209452929052825290205481565b3480156104a257600080fd5b506102c46104b13660046132f7565b610de2565b6102c46104c4366004613600565b610ed5565b3480156104d557600080fd5b506102c4610f40565b3480156104ea57600080fd5b506104fe6104f93660046133b5565b610f54565b6040516102f291906136c4565b6102c46105193660046136d7565b610fee565b34801561052a57600080fd5b506104357f000000000000000000000000000000000000000000000000000000000000000081565b34801561055e57600080fd5b506103dd61056d36600461378a565b600260209081526000928352604080842090915290825290205481565b34801561059657600080fd5b506000546001600160a01b03165b6040516001600160a01b0390911681526020016102f2565b3480156105c857600080fd5b506103dd61109d565b3480156105dd57600080fd5b506004546105a4906001600160a01b031681565b3480156105fd57600080fd5b506103dd60075481565b34801561061357600080fd5b506102e6610622366004613532565b6006602090815260009384526040808520845180860184018051928152908401958401959095209452929052825290205460ff1681565b34801561066557600080fd5b506104fe6106743660046133b5565b611133565b34801561068557600080fd5b5061037b6106943660046137bd565b611242565b3480156106a557600080fd5b506102c46106b4366004613470565b6112d1565b3480156106c557600080fd5b506105a47f000000000000000000000000000000000000000000000000000000000000000081565b3480156106f957600080fd5b506102c461070836600461387b565b61135a565b34801561071957600080fd5b506103dd61271081565b34801561072f57600080fd5b506102c461073e366004613898565b6113c3565b6102c46107513660046132f7565b611466565b34801561076257600080fd5b506102c4610771366004613907565b6116b4565b34801561078257600080fd5b50610435600181565b34801561079757600080fd5b506102c46107a6366004613943565b61171e565b3480156107b757600080fd5b506102c46107c6366004613470565b611856565b3480156107d757600080fd5b506102c46107e636600461387b565b6118b0565b3480156107f757600080fd5b506104fe610806366004613a0c565b611940565b34801561081757600080fd5b507f00000000000000000000000000000000000000000000000000000000000000006105a4565b337f00000000000000000000000000000000000000000000000000000000000000006001600160a01b0316146108bb5760405162461bcd60e51b815260206004820152601e60248201527f4c7a4170703a20696e76616c696420656e64706f696e742063616c6c6572000060448201526064015b60405180910390fd5b61ffff8616600090815260016020526040812080546108d990613a59565b80601f016020809104026020016040519081016040528092919081815260200182805461090590613a59565b80156109525780601f1061092757610100808354040283529160200191610952565b820191906000526020600020905b81548152906001019060200180831161093557829003601f168201915b5050505050905080518686905014801561096d575060008151115b801561099557508051602082012060405161098b9088908890613a8d565b6040518091039020145b610a075760405162461bcd60e51b815260206004820152602660248201527f4c7a4170703a20696e76616c696420736f757263652073656e64696e6720636f60448201527f6e7472616374000000000000000000000000000000000000000000000000000060648201526084016108b2565b610a7d8787878080601f01602080910402602001604051908101604052809392919081815260200183838082843760009201919091525050604080516020601f8a018190048102820181019092528881528a935091508890889081908401838280828437600092019190915250611a0c92505050565b50505050505050565b60006001600160e01b031982167f1f7ecdf7000000000000000000000000000000000000000000000000000000001480610ae957507f01ffc9a7000000000000000000000000000000000000000000000000000000006001600160e01b03198316145b92915050565b610af7611a9a565b6040517f07e0db1700000000000000000000000000000000000000000000000000000000815261ffff821660048201527f00000000000000000000000000000000000000000000000000000000000000006001600160a01b0316906307e0db17906024015b600060405180830381600087803b158015610b7657600080fd5b505af1158015610b8a573d6000803e3d6000fd5b5050505050565b610b99611a9a565b61ffff909116600090815260036020526040902055565b610bb8611a9a565b6040517f10ddb13700000000000000000000000000000000000000000000000000000000815261ffff821660048201527f00000000000000000000000000000000000000000000000000000000000000006001600160a01b0316906310ddb13790602401610b5c565b600080610c678888888888888080601f016020809104026020016040519081016040528093929190818152602001838380828437600092019190915250611af492505050565b91509150965096945050505050565b61ffff831660009081526001602052604081208054829190610c9790613a59565b80601f0160208091040260200160405190810160405280929190818152602001828054610cc390613a59565b8015610d105780601f10610ce557610100808354040283529160200191610d10565b820191906000526020600020905b815481529060010190602001808311610cf357829003601f168201915b505050505090508383604051610d27929190613a8d565b60405180910390208180519060200120149150505b9392505050565b610d4b611a9a565b6040517f42d65a8d0000000000000000000000000000000000000000000000000000000081526001600160a01b037f000000000000000000000000000000000000000000000000000000000000000016906342d65a8d90610db490869086908690600401613ac6565b600060405180830381600087803b158015610dce57600080fd5b505af1158015610a7d573d6000803e3d6000fd5b333014610e575760405162461bcd60e51b815260206004820152602660248201527f4e6f6e626c6f636b696e674c7a4170703a2063616c6c6572206d75737420626560448201527f204c7a417070000000000000000000000000000000000000000000000000000060648201526084016108b2565b610ecd8686868080601f01602080910402602001604051908101604052809392919081815260200183838082843760009201919091525050604080516020601f890181900481028201810190925287815289935091508790879081908401838280828437600092019190915250611c0092505050565b505050505050565b610ecd85858585610ee9602087018761387b565b610ef9604088016020890161387b565b610f066040890189613ae4565b8080601f016020809104026020016040519081016040528093929190818152602001838380828437600092019190915250611c8792505050565b610f48611a9a565b610f526000611d73565b565b60016020526000908152604090208054610f6d90613a59565b80601f0160208091040260200160405190810160405280929190818152602001828054610f9990613a59565b8015610fe65780601f10610fbb57610100808354040283529160200191610fe6565b820191906000526020600020905b815481529060010190602001808311610fc957829003601f168201915b505050505081565b6110928888888888888080601f0160208091040260200160405190810160405280939291908181526020018383808284376000920191909152508a925061103b915050602089018961387b565b61104b60408a0160208b0161387b565b61105860408b018b613ae4565b8080601f016020809104026020016040519081016040528093929190818152602001838380828437600092019190915250611dd092505050565b505050505050505050565b60006007547f00000000000000000000000000000000000000000000000000000000000000006001600160a01b03166318160ddd6040518163ffffffff1660e01b8152600401602060405180830381865afa158015611100573d6000803e3d6000fd5b505050506040513d601f19601f820116820180604052508101906111249190613b2b565b61112e9190613b5a565b905090565b61ffff811660009081526001602052604081208054606092919061115690613a59565b80601f016020809104026020016040519081016040528092919081815260200182805461118290613a59565b80156111cf5780601f106111a4576101008083540402835291602001916111cf565b820191906000526020600020905b8154815290600101906020018083116111b257829003601f168201915b5050505050905080516000036112275760405162461bcd60e51b815260206004820152601d60248201527f4c7a4170703a206e6f20747275737465642070617468207265636f726400000060448201526064016108b2565b610d3c60006014835161123a9190613b5a565b839190611ed1565b6000806112bf8b8b8b8b8b8080601f01602080910402602001604051908101604052809392919081815260200183838082843760009201919091525050604080516020601f8d018190048102820181019092528b81528e93508d9250908c908c9081908401838280828437600092019190915250611ff992505050565b91509150995099975050505050505050565b6112d9611a9a565b8181306040516020016112ee93929190613b6d565b60408051601f1981840301815291815261ffff85166000908152600160205220906113199082613bd9565b507f8c0400cfe2d1199b1a725c78960bcc2a344d869b80590d0f2bd005db15a572ce83838360405161134d93929190613ac6565b60405180910390a1505050565b611362611a9a565b6004805473ffffffffffffffffffffffffffffffffffffffff19166001600160a01b0383169081179091556040519081527f5db758e995a17ec1ad84bdef7e8c3293a0bd6179bcce400dff5d4c3d87db726b9060200160405180910390a150565b6113cb611a9a565b6040517fcbed8b9c0000000000000000000000000000000000000000000000000000000081526001600160a01b037f0000000000000000000000000000000000000000000000000000000000000000169063cbed8b9c906114389088908890889088908890600401613c99565b600060405180830381600087803b15801561145257600080fd5b505af1158015611092573d6000803e3d6000fd5b61ffff861660009081526005602052604080822090516114899088908890613a8d565b908152604080516020928190038301902067ffffffffffffffff8716600090815292529020549050806115245760405162461bcd60e51b815260206004820152602360248201527f4e6f6e626c6f636b696e674c7a4170703a206e6f2073746f726564206d65737360448201527f616765000000000000000000000000000000000000000000000000000000000060648201526084016108b2565b808383604051611535929190613a8d565b6040518091039020146115b05760405162461bcd60e51b815260206004820152602160248201527f4e6f6e626c6f636b696e674c7a4170703a20696e76616c6964207061796c6f6160448201527f640000000000000000000000000000000000000000000000000000000000000060648201526084016108b2565b61ffff871660009081526005602052604080822090516115d39089908990613a8d565b908152604080516020928190038301812067ffffffffffffffff8916600090815290845282902093909355601f8801829004820283018201905286825261166c918991899089908190840183828082843760009201919091525050604080516020601f8a018190048102820181019092528881528a935091508890889081908401838280828437600092019190915250611c0092505050565b7fc264d91f3adc5588250e1551f547752ca0cfa8f6b530d243b9f9f4cab10ea8e587878787856040516116a3959493929190613cc7565b60405180910390a150505050505050565b6116bc611a9a565b61ffff83811660008181526002602090815260408083209487168084529482529182902085905581519283528201929092529081018290527f9d5c7c0b934da8fefa9c7760c98383778a12dfbfc0c3b3106518f43fb9508ac09060600161134d565b33301461176d5760405162461bcd60e51b815260206004820152601f60248201527f4f4654436f72653a2063616c6c6572206d757374206265204f4654436f72650060448201526064016108b2565b6117783086866120b4565b9350846001600160a01b03168a61ffff167fbf551ec93859b170f9b2141bd9298bf3f64322c6f7beb2543a0cb669834118bf866040516117ba91815260200190565b60405180910390a36040517f7fcf35da0000000000000000000000000000000000000000000000000000000081526001600160a01b03861690637fcf35da908390611817908e908e908e908e908e908d908d908d90600401613d03565b600060405180830381600088803b15801561183157600080fd5b5087f1158015611845573d6000803e3d6000fd5b505050505050505050505050505050565b61185e611a9a565b61ffff8316600090815260016020526040902061187c828483613d5f565b507ffa41487ad5d6728f0b19276fa1eddc16558578f5109fc39d2dc33c3230470dab83838360405161134d93929190613ac6565b6118b8611a9a565b6001600160a01b0381166119345760405162461bcd60e51b815260206004820152602660248201527f4f776e61626c653a206e6577206f776e657220697320746865207a65726f206160448201527f646472657373000000000000000000000000000000000000000000000000000060648201526084016108b2565b61193d81611d73565b50565b6040517ff5ecbdbc00000000000000000000000000000000000000000000000000000000815261ffff808616600483015284166024820152306044820152606481018290526060907f00000000000000000000000000000000000000000000000000000000000000006001600160a01b03169063f5ecbdbc90608401600060405180830381865afa1580156119d9573d6000803e3d6000fd5b505050506040513d6000823e601f3d908101601f19168201604052611a019190810190613e1f565b90505b949350505050565b600080611a845a60966366ad5c8a60e01b89898989604051602401611a349493929190613e8d565b60408051601f198184030181529190526020810180517bffffffffffffffffffffffffffffffffffffffffffffffffffffffff166001600160e01b03199093169290921790915230929190612264565b9150915081610ecd57610ecd86868686856122ef565b6000546001600160a01b03163314610f525760405162461bcd60e51b815260206004820181905260248201527f4f776e61626c653a2063616c6c6572206973206e6f7420746865206f776e657260448201526064016108b2565b6000806000611b5a87611b068861238d565b6040805160006020820152602181019390935260c09190911b7fffffffffffffffff000000000000000000000000000000000000000000000000166041830152805160298184030181526049909201905290565b60405163040a7bb160e41b81529091506001600160a01b037f000000000000000000000000000000000000000000000000000000000000000016906340a7bb1090611bb1908b90309086908b908b90600401613ecc565b6040805180830381865afa158015611bcd573d6000803e3d6000fd5b505050506040513d601f19601f82011682018060405250810190611bf19190613f1e565b92509250509550959350505050565b6000611c0c8282612414565b905060ff8116611c2757611c228585858561247a565b610b8a565b60001960ff821601611c3f57611c228585858561250a565b60405162461bcd60e51b815260206004820152601c60248201527f4f4654436f72653a20756e6b6e6f776e207061636b657420747970650000000060448201526064016108b2565b6000611c958782848161271c565b611c9e856127f1565b509050611cad88888884612831565b905060008111611cff5760405162461bcd60e51b815260206004820152601960248201527f4f4654436f72653a20616d6f756e7420746f6f20736d616c6c0000000000000060448201526064016108b2565b6000611d0e87611b068461238d565b9050611d1e8882878787346129ba565b86896001600160a01b03168961ffff167fd81fc9b8523134ed613870ed029d6170cbb73aa6a6bc311b9a642689fb9df59a85604051611d5f91815260200190565b60405180910390a450979650505050505050565b600080546001600160a01b0383811673ffffffffffffffffffffffffffffffffffffffff19831681178455604051919092169283917f8be0079c531659141344cd1fd0a4f28419497f9722a3daafe3b4186f6b6457e09190a35050565b6000611de98960018467ffffffffffffffff891661271c565b611df2876127f1565b509050611e018a8a8a84612831565b905060008111611e535760405162461bcd60e51b815260206004820152601960248201527f4f4654436f72653a20616d6f756e7420746f6f20736d616c6c0000000000000060448201526064016108b2565b6000611e6a338a611e638561238d565b8a8a612b86565b9050611e7a8a82878787346129ba565b888b6001600160a01b03168b61ffff167fd81fc9b8523134ed613870ed029d6170cbb73aa6a6bc311b9a642689fb9df59a85604051611ebb91815260200190565b60405180910390a4509998505050505050505050565b606081611edf81601f613f42565b1015611f2d5760405162461bcd60e51b815260206004820152600e60248201527f736c6963655f6f766572666c6f7700000000000000000000000000000000000060448201526064016108b2565b611f378284613f42565b84511015611f875760405162461bcd60e51b815260206004820152601160248201527f736c6963655f6f75744f66426f756e647300000000000000000000000000000060448201526064016108b2565b606082158015611fa65760405191506000825260208201604052611ff0565b6040519150601f8416801560200281840101858101878315602002848b0101015b81831015611fdf578051835260209283019201611fc7565b5050858452601f01601f1916604052505b50949350505050565b600080600061200c338a611e638b61238d565b60405163040a7bb160e41b81529091506001600160a01b037f000000000000000000000000000000000000000000000000000000000000000016906340a7bb1090612063908d90309086908b908b90600401613ecc565b6040805180830381865afa15801561207f573d6000803e3d6000fd5b505050506040513d601f19601f820116820180604052508101906120a39190613f1e565b925092505097509795505050505050565b6040516370a0823160e01b81526001600160a01b03838116600483015260009182917f000000000000000000000000000000000000000000000000000000000000000016906370a0823190602401602060405180830381865afa15801561211f573d6000803e3d6000fd5b505050506040513d601f19601f820116820180604052508101906121439190613b2b565b9050306001600160a01b0386160361218e576121896001600160a01b037f0000000000000000000000000000000000000000000000000000000000000000168585612bc7565b6121c3565b6121c36001600160a01b037f000000000000000000000000000000000000000000000000000000000000000016868686612c5d565b6040516370a0823160e01b81526001600160a01b03858116600483015282917f0000000000000000000000000000000000000000000000000000000000000000909116906370a0823190602401602060405180830381865afa15801561222d573d6000803e3d6000fd5b505050506040513d601f19601f820116820180604052508101906122519190613b2b565b61225b9190613b5a565b95945050505050565b6000606060008060008661ffff1667ffffffffffffffff81111561228a5761228a6134c3565b6040519080825280601f01601f1916602001820160405280156122b4576020820181803683370190505b50905060008087516020890160008d8df191503d9250868311156122d6578692505b828152826000602083013e909890975095505050505050565b8180519060200120600560008761ffff1661ffff168152602001908152602001600020856040516123209190613f55565b90815260408051918290036020908101832067ffffffffffffffff88166000908152915220919091557fe183f33de2837795525b4792ca4cd60535bd77c53b7e7030060bfcf5734d6b0c9061237e9087908790879087908790613f71565b60405180910390a15050505050565b6000806123ba7f000000000000000000000000000000000000000000000000000000000000000084613fda565b905067ffffffffffffffff811115610ae95760405162461bcd60e51b815260206004820152601a60248201527f4f4654436f72653a20616d6f756e745344206f766572666c6f7700000000000060448201526064016108b2565b6000612421826001613f42565b835110156124715760405162461bcd60e51b815260206004820152601360248201527f746f55696e74385f6f75744f66426f756e64730000000000000000000000000060448201526064016108b2565b50016001015190565b60008061248683612cae565b90925090506001600160a01b03821661249f5761dead91505b60006124aa82612d38565b90506124b7878483612d6e565b9050826001600160a01b03168761ffff167fbf551ec93859b170f9b2141bd9298bf3f64322c6f7beb2543a0cb669834118bf836040516124f991815260200190565b60405180910390a350505050505050565b600080600080600061251b86612da9565b945094509450945094506000600660008b61ffff1661ffff168152602001908152602001600020896040516125509190613f55565b908152604080516020928190038301902067ffffffffffffffff8b166000908152925281205460ff16915061258485612d38565b9050816125f3576125968b3083612d6e565b61ffff8c166000908152600660205260409081902090519192506001916125be908d90613f55565b908152604080516020928190038301902067ffffffffffffffff8d16600090815292529020805460ff19169115159190911790555b6001600160a01b0386163b61264a576040516001600160a01b03871681527f9aedf5fdba8716db3b6705ca00150643309995d4f818a249ed6dde6677e7792d9060200160405180910390a150505050505050612716565b8a8a8a8a8a8a868a60008a612669578b67ffffffffffffffff1661266b565b5a5b905060008061269d5a609663eaffd49a60e01b8e8e8e8d8d8d8d8d604051602401611a34989796959493929190613fee565b9150915081156126f6578751602089012060405161ffff8d16907fb8890edbfc1c74692f527444645f95489c3703cc2df42e4a366f5d06fa6cd884906126e8908e908e908690614061565b60405180910390a250612703565b6127038b8b8b8b856122ef565b5050505050505050505050505050505050505b50505050565b600061272783612e65565b61ffff808716600090815260026020908152604080832093891683529290522054909150806127985760405162461bcd60e51b815260206004820152601a60248201527f4c7a4170703a206d696e4761734c696d6974206e6f742073657400000000000060448201526064016108b2565b6127a28382613f42565b821015610ecd5760405162461bcd60e51b815260206004820152601b60248201527f4c7a4170703a20676173206c696d697420697320746f6f206c6f77000000000060448201526064016108b2565b60008061281e7f000000000000000000000000000000000000000000000000000000000000000084614090565b905061282a8184613b5a565b9150915091565b60006001600160a01b03851633146128b15760405162461bcd60e51b815260206004820152602260248201527f50726f78794f46543a206f776e6572206973206e6f742073656e642063616c6c60448201527f657200000000000000000000000000000000000000000000000000000000000060648201526084016108b2565b6128bc8530846120b4565b91506000806128ca846127f1565b90925090508015612909576129096001600160a01b037f0000000000000000000000000000000000000000000000000000000000000000168883612bc7565b816007600082825461291b9190613f42565b909155506000905061293467ffffffffffffffff612d38565b90506007548110156129ae5760405162461bcd60e51b815260206004820152602160248201527f50726f78794f46543a206f7574626f756e64416d6f756e74206f766572666c6f60448201527f770000000000000000000000000000000000000000000000000000000000000060648201526084016108b2565b50909695505050505050565b61ffff8616600090815260016020526040812080546129d890613a59565b80601f0160208091040260200160405190810160405280929190818152602001828054612a0490613a59565b8015612a515780601f10612a2657610100808354040283529160200191612a51565b820191906000526020600020905b815481529060010190602001808311612a3457829003601f168201915b505050505090508051600003612acf5760405162461bcd60e51b815260206004820152603060248201527f4c7a4170703a2064657374696e6174696f6e20636861696e206973206e6f742060448201527f61207472757374656420736f757263650000000000000000000000000000000060648201526084016108b2565b612ada878751612ec1565b6040517fc58031000000000000000000000000000000000000000000000000000000000081526001600160a01b037f0000000000000000000000000000000000000000000000000000000000000000169063c5803100908490612b4b908b9086908c908c908c908c906004016140a4565b6000604051808303818588803b158015612b6457600080fd5b505af1158015612b78573d6000803e3d6000fd5b505050505050505050505050565b6060600185856001600160a01b0389168587604051602001612bad9695949392919061410b565b604051602081830303815290604052905095945050505050565b6040516001600160a01b038316602482015260448101829052612c589084907fa9059cbb00000000000000000000000000000000000000000000000000000000906064015b60408051601f198184030181529190526020810180517bffffffffffffffffffffffffffffffffffffffffffffffffffffffff166001600160e01b031990931692909217909152612f32565b505050565b6040516001600160a01b03808516602483015283166044820152606481018290526127169085907f23b872dd0000000000000000000000000000000000000000000000000000000090608401612c0c565b60008080612cbc8482612414565b60ff16148015612ccd575082516029145b612d195760405162461bcd60e51b815260206004820152601860248201527f4f4654436f72653a20696e76616c6964207061796c6f6164000000000000000060448201526064016108b2565b612d2483600d61301a565b9150612d31836021613090565b9050915091565b6000610ae97f000000000000000000000000000000000000000000000000000000000000000067ffffffffffffffff841661419e565b60008160076000828254612d829190613b5a565b9091555050306001600160a01b03841603612d9e575080610d3c565b611a043084846120b4565b600080806060816001612dbc8783612414565b60ff1614612e0c5760405162461bcd60e51b815260206004820152601860248201527f4f4654436f72653a20696e76616c6964207061796c6f6164000000000000000060448201526064016108b2565b612e1786600d61301a565b9350612e24866021613090565b9250612e318660296130f6565b9450612e3e866049613090565b9050612e5a6051808851612e529190613b5a565b889190611ed1565b915091939590929450565b6000602282511015612eb95760405162461bcd60e51b815260206004820152601c60248201527f4c7a4170703a20696e76616c69642061646170746572506172616d730000000060448201526064016108b2565b506022015190565b61ffff821660009081526003602052604081205490819003612ee257506127105b80821115612c585760405162461bcd60e51b815260206004820181905260248201527f4c7a4170703a207061796c6f61642073697a6520697320746f6f206c6172676560448201526064016108b2565b6000612f87826040518060400160405280602081526020017f5361666545524332303a206c6f772d6c6576656c2063616c6c206661696c6564815250856001600160a01b031661315c9092919063ffffffff16565b9050805160001480612fa8575080806020019051810190612fa891906141b5565b612c585760405162461bcd60e51b815260206004820152602a60248201527f5361666545524332303a204552433230206f7065726174696f6e20646964206e60448201527f6f7420737563636565640000000000000000000000000000000000000000000060648201526084016108b2565b6000613027826014613f42565b835110156130775760405162461bcd60e51b815260206004820152601560248201527f746f416464726573735f6f75744f66426f756e6473000000000000000000000060448201526064016108b2565b5001602001516c01000000000000000000000000900490565b600061309d826008613f42565b835110156130ed5760405162461bcd60e51b815260206004820152601460248201527f746f55696e7436345f6f75744f66426f756e647300000000000000000000000060448201526064016108b2565b50016008015190565b6000613103826020613f42565b835110156131535760405162461bcd60e51b815260206004820152601560248201527f746f427974657333325f6f75744f66426f756e6473000000000000000000000060448201526064016108b2565b50016020015190565b6060611a04848460008585600080866001600160a01b031685876040516131839190613f55565b60006040518083038185875af1925050503d80600081146131c0576040519150601f19603f3d011682016040523d82523d6000602084013e6131c5565b606091505b50915091506131d6878383876131e1565b979650505050505050565b60608315613250578251600003613249576001600160a01b0385163b6132495760405162461bcd60e51b815260206004820152601d60248201527f416464726573733a2063616c6c20746f206e6f6e2d636f6e747261637400000060448201526064016108b2565b5081611a04565b611a0483838151156132655781518083602001fd5b8060405162461bcd60e51b81526004016108b291906136c4565b803561ffff8116811461329157600080fd5b919050565b60008083601f8401126132a857600080fd5b50813567ffffffffffffffff8111156132c057600080fd5b6020830191508360208285010111156132d857600080fd5b9250929050565b803567ffffffffffffffff8116811461329157600080fd5b6000806000806000806080878903121561331057600080fd5b6133198761327f565b9550602087013567ffffffffffffffff8082111561333657600080fd5b6133428a838b01613296565b909750955085915061335660408a016132df565b9450606089013591508082111561336c57600080fd5b5061337989828a01613296565b979a9699509497509295939492505050565b60006020828403121561339d57600080fd5b81356001600160e01b031981168114610d3c57600080fd5b6000602082840312156133c757600080fd5b610d3c8261327f565b600080604083850312156133e357600080fd5b6133ec8361327f565b946020939093013593505050565b801515811461193d57600080fd5b60008060008060008060a0878903121561342157600080fd5b61342a8761327f565b955060208701359450604087013593506060870135613448816133fa565b9250608087013567ffffffffffffffff81111561346457600080fd5b61337989828a01613296565b60008060006040848603121561348557600080fd5b61348e8461327f565b9250602084013567ffffffffffffffff8111156134aa57600080fd5b6134b686828701613296565b9497909650939450505050565b634e487b7160e01b600052604160045260246000fd5b604051601f8201601f1916810167ffffffffffffffff81118282101715613502576135026134c3565b604052919050565b600067ffffffffffffffff821115613524576135246134c3565b50601f01601f191660200190565b60008060006060848603121561354757600080fd5b6135508461327f565b9250602084013567ffffffffffffffff81111561356c57600080fd5b8401601f8101861361357d57600080fd5b803561359061358b8261350a565b6134d9565b8181528760208385010111156135a557600080fd5b816020840160208301376000602083830101528094505050506135ca604085016132df565b90509250925092565b6001600160a01b038116811461193d57600080fd5b6000606082840312156135fa57600080fd5b50919050565b600080600080600060a0868803121561361857600080fd5b8535613623816135d3565b94506136316020870161327f565b93506040860135925060608601359150608086013567ffffffffffffffff81111561365b57600080fd5b613667888289016135e8565b9150509295509295909350565b60005b8381101561368f578181015183820152602001613677565b50506000910152565b600081518084526136b0816020860160208601613674565b601f01601f19169290920160200192915050565b602081526000610d3c6020830184613698565b60008060008060008060008060e0898b0312156136f357600080fd5b88356136fe816135d3565b975061370c60208a0161327f565b96506040890135955060608901359450608089013567ffffffffffffffff8082111561373757600080fd5b6137438c838d01613296565b909650945084915061375760a08c016132df565b935060c08b013591508082111561376d57600080fd5b5061377a8b828c016135e8565b9150509295985092959890939650565b6000806040838503121561379d57600080fd5b6137a68361327f565b91506137b46020840161327f565b90509250929050565b600080600080600080600080600060e08a8c0312156137db57600080fd5b6137e48a61327f565b985060208a0135975060408a0135965060608a013567ffffffffffffffff8082111561380f57600080fd5b61381b8d838e01613296565b909850965086915061382f60808d016132df565b955060a08c01359150613841826133fa565b90935060c08b0135908082111561385757600080fd5b506138648c828d01613296565b915080935050809150509295985092959850929598565b60006020828403121561388d57600080fd5b8135610d3c816135d3565b6000806000806000608086880312156138b057600080fd5b6138b98661327f565b94506138c76020870161327f565b935060408601359250606086013567ffffffffffffffff8111156138ea57600080fd5b6138f688828901613296565b969995985093965092949392505050565b60008060006060848603121561391c57600080fd5b6139258461327f565b92506139336020850161327f565b9150604084013590509250925092565b6000806000806000806000806000806101008b8d03121561396357600080fd5b61396c8b61327f565b995060208b013567ffffffffffffffff8082111561398957600080fd5b6139958e838f01613296565b909b5099508991506139a960408e016132df565b985060608d0135975060808d013591506139c2826135d3565b90955060a08c0135945060c08c013590808211156139df57600080fd5b506139ec8d828e01613296565b9150809450508092505060e08b013590509295989b9194979a5092959850565b60008060008060808587031215613a2257600080fd5b613a2b8561327f565b9350613a396020860161327f565b92506040850135613a49816135d3565b9396929550929360600135925050565b600181811c90821680613a6d57607f821691505b6020821081036135fa57634e487b7160e01b600052602260045260246000fd5b8183823760009101908152919050565b81835281816020850137506000828201602090810191909152601f909101601f19169091010190565b61ffff84168152604060208201526000611a01604083018486613a9d565b6000808335601e19843603018112613afb57600080fd5b83018035915067ffffffffffffffff821115613b1657600080fd5b6020019150368190038213156132d857600080fd5b600060208284031215613b3d57600080fd5b5051919050565b634e487b7160e01b600052601160045260246000fd5b81810381811115610ae957610ae9613b44565b8284823760609190911b6bffffffffffffffffffffffff19169101908152601401919050565b601f821115612c5857600081815260208120601f850160051c81016020861015613bba5750805b601f850160051c820191505b81811015610ecd57828155600101613bc6565b815167ffffffffffffffff811115613bf357613bf36134c3565b613c0781613c018454613a59565b84613b93565b602080601f831160018114613c3c5760008415613c245750858301515b600019600386901b1c1916600185901b178555610ecd565b600085815260208120601f198616915b82811015613c6b57888601518255948401946001909101908401613c4c565b5085821015613c895787850151600019600388901b60f8161c191681555b5050505050600190811b01905550565b600061ffff8088168352808716602084015250846040830152608060608301526131d6608083018486613a9d565b61ffff86168152608060208201526000613ce5608083018688613a9d565b67ffffffffffffffff94909416604083015250606001529392505050565b61ffff8916815260c060208201526000613d2160c08301898b613a9d565b67ffffffffffffffff8816604084015286606084015285608084015282810360a0840152613d50818587613a9d565b9b9a5050505050505050505050565b67ffffffffffffffff831115613d7757613d776134c3565b613d8b83613d858354613a59565b83613b93565b6000601f841160018114613dbf5760008515613da75750838201355b600019600387901b1c1916600186901b178355610b8a565b600083815260209020601f19861690835b82811015613df05786850135825560209485019460019092019101613dd0565b5086821015613e0d5760001960f88860031b161c19848701351681555b505060018560011b0183555050505050565b600060208284031215613e3157600080fd5b815167ffffffffffffffff811115613e4857600080fd5b8201601f81018413613e5957600080fd5b8051613e6761358b8261350a565b818152856020838501011115613e7c57600080fd5b61225b826020830160208601613674565b61ffff85168152608060208201526000613eaa6080830186613698565b67ffffffffffffffff8516604084015282810360608401526131d68185613698565b61ffff861681526001600160a01b038516602082015260a060408201526000613ef860a0830186613698565b84151560608401528281036080840152613f128185613698565b98975050505050505050565b60008060408385031215613f3157600080fd5b505080516020909101519092909150565b80820180821115610ae957610ae9613b44565b60008251613f67818460208701613674565b9190910192915050565b61ffff8616815260a060208201526000613f8e60a0830187613698565b67ffffffffffffffff861660408401528281036060840152613fb08186613698565b90508281036080840152613f128185613698565b634e487b7160e01b600052601260045260246000fd5b600082613fe957613fe9613fc4565b500490565b600061010061ffff8b16835280602084015261400c8184018b613698565b905067ffffffffffffffff891660408401528760608401526001600160a01b03871660808401528560a084015282810360c084015261404b8186613698565b9150508260e08301529998505050505050505050565b6060815260006140746060830186613698565b67ffffffffffffffff9490941660208301525060400152919050565b60008261409f5761409f613fc4565b500690565b61ffff8716815260c0602082015260006140c160c0830188613698565b82810360408401526140d38188613698565b6001600160a01b0387811660608601528616608085015283810360a085015290506140fe8185613698565b9998505050505050505050565b7fff000000000000000000000000000000000000000000000000000000000000008760f81b16815285600182015260007fffffffffffffffff000000000000000000000000000000000000000000000000808760c01b166021840152856029840152808560c01b16604984015250825161418c816051850160208701613674565b91909101605101979650505050505050565b8082028115828204841417610ae957610ae9613b44565b6000602082840312156141c757600080fd5b8151610d3c816133fa56fea26469706673582212200b4a7846eb28f158b171b298a3ebb9ba7cbb9f7126bdefadfaadb09ead268f1664736f6c63430008150033",
  "devdoc": {
    "events": {
      "ReceiveFromChain(uint16,address,uint256)": {
        "details": "Emitted when `_amount` tokens are received from `_srcChainId` into the `_toAddress` on the local chain. `_nonce` is the inbound nonce."
      },
      "SendToChain(uint16,address,bytes32,uint256)": {
        "details": "Emitted when `_amount` tokens are moved from the `_sender` to (`_dstChainId`, `_toAddress`) `_nonce` is the outbound nonce"
      }
    },
    "kind": "dev",
    "methods": {
      "circulatingSupply()": {
        "details": "returns the circulating amount of tokens on current chain"
      },
      "estimateSendFee(uint16,bytes32,uint256,bool,bytes)": {
        "details": "estimate send token `_tokenId` to (`_dstChainId`, `_toAddress`) _dstChainId - L0 defined chain id to send tokens too _toAddress - dynamic bytes array which contains the address to whom you are sending tokens to on the dstChain _amount - amount of the tokens to transfer _useZro - indicates to use zro to pay L0 fees _adapterParam - flexible bytes array to indicate messaging adapter services in L0"
      },
      "owner()": {
        "details": "Returns the address of the current owner."
      },
      "renounceOwnership()": {
        "details": "Leaves the contract without owner. It will not be possible to call `onlyOwner` functions. Can only be called by the current owner. NOTE: Renouncing ownership will leave the contract without an owner, thereby disabling any functionality that is only available to the owner."
      },
      "sendFrom(address,uint16,bytes32,uint256,(address,address,bytes))": {
        "details": "send `_amount` amount of token to (`_dstChainId`, `_toAddress`) from `_from` `_from` the owner of token `_dstChainId` the destination chain identifier `_toAddress` can be any size depending on the `dstChainId`. `_amount` the quantity of tokens in wei `_refundAddress` the address LayerZero refunds if too much message fee is sent `_zroPaymentAddress` set to address(0x0) if not paying in ZRO (LayerZero Token) `_adapterParams` is a flexible bytes array to indicate messaging adapter services"
      },
      "token()": {
        "details": "returns the address of the ERC20 token"
      },
      "transferOwnership(address)": {
        "details": "Transfers ownership of the contract to a new account (`newOwner`). Can only be called by the current owner."
      }
    },
    "version": 1
  },
  "userdoc": {
    "kind": "user",
    "methods": {},
    "version": 1
  },
  "storageLayout": {
    "storage": [
      {
        "astId": 7,
        "contract": "contracts/token/LayerZeroWTAO.sol:LayerZeroWTAO",
        "label": "_owner",
        "offset": 0,
        "slot": "0",
        "type": "t_address"
      },
      {
        "astId": 6014,
        "contract": "contracts/token/LayerZeroWTAO.sol:LayerZeroWTAO",
        "label": "trustedRemoteLookup",
        "offset": 0,
        "slot": "1",
        "type": "t_mapping(t_uint16,t_bytes_storage)"
      },
      {
        "astId": 6020,
        "contract": "contracts/token/LayerZeroWTAO.sol:LayerZeroWTAO",
        "label": "minDstGasLookup",
        "offset": 0,
        "slot": "2",
        "type": "t_mapping(t_uint16,t_mapping(t_uint16,t_uint256))"
      },
      {
        "astId": 6024,
        "contract": "contracts/token/LayerZeroWTAO.sol:LayerZeroWTAO",
        "label": "payloadSizeLimitLookup",
        "offset": 0,
        "slot": "3",
        "type": "t_mapping(t_uint16,t_uint256)"
      },
      {
        "astId": 6026,
        "contract": "contracts/token/LayerZeroWTAO.sol:LayerZeroWTAO",
        "label": "precrime",
        "offset": 0,
        "slot": "4",
        "type": "t_address"
      },
      {
        "astId": 6556,
        "contract": "contracts/token/LayerZeroWTAO.sol:LayerZeroWTAO",
        "label": "failedMessages",
        "offset": 0,
        "slot": "5",
        "type": "t_mapping(t_uint16,t_mapping(t_bytes_memory_ptr,t_mapping(t_uint64,t_bytes32)))"
      },
      {
        "astId": 10502,
        "contract": "contracts/token/LayerZeroWTAO.sol:LayerZeroWTAO",
        "label": "creditedPackets",
        "offset": 0,
        "slot": "6",
        "type": "t_mapping(t_uint16,t_mapping(t_bytes_memory_ptr,t_mapping(t_uint64,t_bool)))"
      },
      {
        "astId": 11624,
        "contract": "contracts/token/LayerZeroWTAO.sol:LayerZeroWTAO",
        "label": "outboundAmount",
        "offset": 0,
        "slot": "7",
        "type": "t_uint256"
      }
    ],
    "types": {
      "t_address": {
        "encoding": "inplace",
        "label": "address",
        "numberOfBytes": "20"
      },
      "t_bool": {
        "encoding": "inplace",
        "label": "bool",
        "numberOfBytes": "1"
      },
      "t_bytes32": {
        "encoding": "inplace",
        "label": "bytes32",
        "numberOfBytes": "32"
      },
      "t_bytes_memory_ptr": {
        "encoding": "bytes",
        "label": "bytes",
        "numberOfBytes": "32"
      },
      "t_bytes_storage": {
        "encoding": "bytes",
        "label": "bytes",
        "numberOfBytes": "32"
      },
      "t_mapping(t_bytes_memory_ptr,t_mapping(t_uint64,t_bool))": {
        "encoding": "mapping",
        "key": "t_bytes_memory_ptr",
        "label": "mapping(bytes => mapping(uint64 => bool))",
        "numberOfBytes": "32",
        "value": "t_mapping(t_uint64,t_bool)"
      },
      "t_mapping(t_bytes_memory_ptr,t_mapping(t_uint64,t_bytes32))": {
        "encoding": "mapping",
        "key": "t_bytes_memory_ptr",
        "label": "mapping(bytes => mapping(uint64 => bytes32))",
        "numberOfBytes": "32",
        "value": "t_mapping(t_uint64,t_bytes32)"
      },
      "t_mapping(t_uint16,t_bytes_storage)": {
        "encoding": "mapping",
        "key": "t_uint16",
        "label": "mapping(uint16 => bytes)",
        "numberOfBytes": "32",
        "value": "t_bytes_storage"
      },
      "t_mapping(t_uint16,t_mapping(t_bytes_memory_ptr,t_mapping(t_uint64,t_bool)))": {
        "encoding": "mapping",
        "key": "t_uint16",
        "label": "mapping(uint16 => mapping(bytes => mapping(uint64 => bool)))",
        "numberOfBytes": "32",
        "value": "t_mapping(t_bytes_memory_ptr,t_mapping(t_uint64,t_bool))"
      },
      "t_mapping(t_uint16,t_mapping(t_bytes_memory_ptr,t_mapping(t_uint64,t_bytes32)))": {
        "encoding": "mapping",
        "key": "t_uint16",
        "label": "mapping(uint16 => mapping(bytes => mapping(uint64 => bytes32)))",
        "numberOfBytes": "32",
        "value": "t_mapping(t_bytes_memory_ptr,t_mapping(t_uint64,t_bytes32))"
      },
      "t_mapping(t_uint16,t_mapping(t_uint16,t_uint256))": {
        "encoding": "mapping",
        "key": "t_uint16",
        "label": "mapping(uint16 => mapping(uint16 => uint256))",
        "numberOfBytes": "32",
        "value": "t_mapping(t_uint16,t_uint256)"
      },
      "t_mapping(t_uint16,t_uint256)": {
        "encoding": "mapping",
        "key": "t_uint16",
        "label": "mapping(uint16 => uint256)",
        "numberOfBytes": "32",
        "value": "t_uint256"
      },
      "t_mapping(t_uint64,t_bool)": {
        "encoding": "mapping",
        "key": "t_uint64",
        "label": "mapping(uint64 => bool)",
        "numberOfBytes": "32",
        "value": "t_bool"
      },
      "t_mapping(t_uint64,t_bytes32)": {
        "encoding": "mapping",
        "key": "t_uint64",
        "label": "mapping(uint64 => bytes32)",
        "numberOfBytes": "32",
        "value": "t_bytes32"
      },
      "t_uint16": {
        "encoding": "inplace",
        "label": "uint16",
        "numberOfBytes": "2"
      },
      "t_uint256": {
        "encoding": "inplace",
        "label": "uint256",
        "numberOfBytes": "32"
      },
      "t_uint64": {
        "encoding": "inplace",
        "label": "uint64",
        "numberOfBytes": "8"
      }
    }
  }
}